:020000040800F2
:10000000005000204D190008411B0008431B000848
:10001000451B0008471B0008491B000800000000A2
:100020000000000000000000000000008111000836
:100030004B1B000800000000E11100082512000819
:1000400095190008951900089519000895190008D8
:1000500095190008951900089519000895190008C8
:1000600095190008951900089519000895190008B8
:1000700095190008951900089519000895190008A8
:100080009519000895190008951900089519000898
:100090009519000895190008951900089519000888
:1000A0009519000895190008951900089519000878
:1000B0009519000895190008951900089519000868
:1000C0009519000895190008951900089519000858
:1000D00095190008B51A0008951900089519000827
:1000E00095190008951900089519000800000000EE
:1000F0000000000000000000000000000000000000
:0C01000000000000000000005FF808F1A3
:100110000023C25C0133002AFBD1581E7047000047
:10012000012051E21EFF2F013600003A010050E18C
:100130002200009A020011E12300000A0E0211E3DE
:100140008111A0010830A0030130A013010251E386
:10015000000051310112A0310332A031FAFFFF3A01
:10016000020151E3000051318110A0318330A031F0
:10017000FAFFFF3A0020A0E3010050E10100402017
:1001800003208221A10050E1A1004020A320822170
:10019000210150E12101402023218221A10150E1D0
:1001A000A1014020A3218221000050E32332B0119D
:1001B0002112A011EFFFFF1A0200A0E11EFF2FE1A4
:1001C0000100A0030000A0131EFF2FE1010851E36E
:1001D0002118A0211020A0230020A033010C51E3FE
:1001E0002114A02108208222100051E32112A02115
:1001F00004208222040051E303208282A120829005
:100200003002A0E11EFF2FE1000050E30000E013E8
:10021000590000EA000051E3FAFFFF0A03402DE90C
:10022000BEFFFFEB0640BDE8920003E0031041E093
:100230001EFF2FE1000051E34300000A01C020E04F
:1002400000106142012051E22700000A0030B0E1B5
:1002500000306042010053E12600009A020011E1E3
:100260002800000A0E0211E38111A0010820A0035A
:100270000120A013010251E3030051310112A0310A
:100280000222A031FAFFFF3A020151E3030051318B
:100290008110A0318220A031FAFFFF3A0000A0E3D4
:1002A000010053E10130432002008021A10053E10D
:1002B000A1304320A2008021210153E121314320BC
:1002C00022018021A10153E1A1314320A20180211B
:1002D000000053E32222B0112112A011EFFFFF1AF8
:1002E00000005CE3000060421EFF2FE100003CE1E3
:1002F000000060421EFF2FE10000A033CC0FA001E0
:10030000010080031EFF2FE1010851E32118A02105
:100310001020A0230020A033010C51E32114A021C0
:1003200008208222100051E32112A0210420822201
:10033000040051E303208282A120829000005CE34C
:100340003302A0E1000060421EFF2FE1000050E3F5
:100350000201E0C30201A0B3070000EA000051E37C
:10036000F9FFFF0A03402DE9B3FFFFEB0640BDE8AC
:10037000920003E0031041E01EFF2FE11EFF2FE17A
:10038000021121E2000000EA023123E230402DE9AF
:100390008140A0E18350A0E1050034E1020030017A
:1003A00000C0941102C09511C4CAF011C5CAF01161
:1003B0008C00000AA44AA0E1A55A74E0005065B27E
:1003C000060000DA054084E0022020E0033021E04E
:1003D000000022E0011023E0022020E0033021E0B1
:1003E000360055E33040BD881EFF2F81020111E326
:1003F0000116A0E101C6A0E321168CE10100000A6C
:10040000000070E20010E1E2020113E30336A0E114
:1004100023368CE10100000A002072E20030E3E2A2
:10042000050034E16900000A014044E220E075E281
:10043000050000BA12CEA0E1320590E00010A1E262
:10044000130E90E05315B1E0060000EA205045E29B
:1004500020E08EE2010052E313CEA0E102C08C2323
:10046000530590E0C31FB1E0025101E20200005ABF
:1004700000C07CE20000F0E20010E1E2010651E37E
:100480000F00003A020651E30600003AA110B0E165
:100490006000B0E16CC0A0E1014084E2842AA0E1E8
:1004A000010572E36B00002A02015CE3A0C0B00109
:1004B0000000B0E2041AA1E0051081E13040BDE87F
:1004C0001EFF2FE18CC0B0E10000B0E00110A1E000
:1004D000014054E201065123F2FFFF2A000031E3FC
:1004E0001430A0133430A0030010A0010000A003BA
:1004F0000120A0E1010852E32228A021103043226C
:10050000010C52E32224A02108304322100052E3C0
:100510002222A02104304322040052E3023043226D
:10052000A2304330A23143E0202053E2070000AA6A
:100530000C2092E2040000DA14C082E20C2062E295
:10054000110CA0E13112A0E1040000EA142082E2C3
:1005500020C062D21112A0E1301C81D11002A0D1C2
:10056000034054E0041A81A0051081A13040BDA8C9
:100570001EFF2FA10440E0E11F4054E20F0000AA3B
:100580000C4094E2060000CA144084E2202064E299
:100590003004A0E1110280E1311485E13040BDE872
:1005A0001EFF2FE10C4064E2202064E23002A0E153
:1005B000110480E10510A0E13040BDE81EFF2FE1ED
:1005C0003104A0E10510A0E13040BDE81EFF2FE19D
:1005D000000034E3013623E20116210201408402C7
:1005E000015045128FFFFFEAC4CAF0E1C5CAF011FD
:1005F0001D00000A050034E1020030010400000A79
:1006000000C094E10310A0010200A0013040BDE849
:100610001EFF2FE1030031E10010A0130000A01322
:100620003040BD181EFF2F11A4CAB0E10400001A0B
:100630008000B0E10110B1E0021181233040BDE83B
:100640001EFF2FE1014594E2011681323040BD3892
:100650001EFF2F31025101E27F1485E30F1681E363
:100660000000A0E33040BDE81EFF2FE1C4CAF0E166
:100670000310A0110200A011C5CAF0010130A011A1
:100680000020A011014690E10356920103003101C0
:10069000021781133040BDE81EFF2FE1000030E358
:1006A0000010A0031EFF2F0130402DE9014BA0E3F5
:1006B000324084E20050A0E30010A0E386FFFFEA8E
:1006C000000030E30010A0031EFF2F0130402DE991
:1006D000014BA0E3324084E2025110E2000060428C
:1006E0000010A0E37CFFFFEA8020B0E1C211A0E18E
:1006F0006110A0E1020EA0E1FF341212FF043313D7
:100700000E1321121EFF2F11FF24D2E31EFF2F0113
:10071000FF0433E3021781031EFF2F0130402DE950
:100720000E4DA0E3025101E20211C1E36AFFFFEAAC
:10073000012090E11EFF2F0130402DE90050A0E381
:10074000060000EA012090E11EFF2F0130402DE954
:10075000025111E20100005A000070E20010E1E2D3
:10076000014BA0E3324084E221CBB0E142FFFF0A1B
:100770000320A0E3ACC1B0E103208212ACC1B0E120
:1007800003208212AC2182E0203062E210C3A0E19B
:100790003002A0E1110380E13112A0E1024084E0C7
:1007A00035FFFFEA70402DE9FFC0A0E307CC8CE3E2
:1007B000214A1CE0235A1C100C0034110C00351186
:1007C0007500000B054084E0036021E08C1AC1E154
:1007D0008C3AC3E1015690E103569211011681E370
:1007E000013683E31D00000A90C28EE00050A0E3B2
:1007F00091E2A5E0022106E290E3A5E00060A0E31B
:100800009153A6E000003CE301E08E13FF4044E278
:10081000020C56E3034CC4E20200002A8EE0B0E171
:100820000550B5E00660A6E0861582E1A51A81E1D3
:100830008505A0E1AE0A80E18EE5A0E1FDC054E2AD
:10084000070C5C831100008A02015EE3A0E0B001A6
:100850000000B0E2041AA1E07040BDE81EFF2FE1E5
:10086000026106E2011086E1020080E1031021E04E
:10087000AC4054E00C5074C0041A81C17040BDC833
:100880001EFF2FC1011681E300E0A0E3014054E206
:100890005D0000CA360074E30000A0D3021101D24B
:1008A0007040BDD81EFF2FD1004064E2204054E2CA
:1008B0001A0000AA0C4094E20C0000CA144084E222
:1008C000205064E21035A0E13004A0E1110580E180
:1008D000022101E20211C1E3A30F90E03114A2E072
:1008E00083E09EE1A30FC0017040BDE81EFF2FE131
:1008F0000C4064E2205064E21034A0E13005A0E135
:10090000110480E1021101E2A30F90E00010A1E2C6
:1009100083E09EE1A30FC0017040BDE81EFF2FE100
:10092000205064E210E58EE13034A0E1113583E11E
:100930003104A0E1021101E23104C0E1A30F80E023
:1009400083E09EE1A30FC0017040BDE81EFF2FE1D0
:10095000000034E30800001A026101E28000B0E107
:100960000110A1E0010611E301404402FAFFFF0A71
:10097000061081E1000035E31EFF2F11026103E242
:100980008220B0E10330A3E0010613E301504502E9
:10099000FAFFFF0A063083E11EFF2FE10C0034E16D
:1009A000235A0CE00C0035110700000A816090E129
:1009B00083609211E5FFFF1A031021E0021101E2AA
:1009C0000000A0E37040BDE81EFF2FE1816090E1D0
:1009D0000200A0010310A001836092111000000A20
:1009E0000C0034E10100001A016690E10C00001ACD
:1009F0000C0035E10300001A036692E10200A01129
:100A00000310A0110600001A031021E0021101E2F8
:100A10007F1481E30F1681E30000A0E37040BDE87E
:100A20001EFF2FE17F1481E33E1781E37040BDE894
:100A30001EFF2FE170402DE9FFC0A0E307CC8CE33F
:100A4000214A1CE0235A1C100C0034110C003511F3
:100A50005E00000B054044E003E021E0035692E114
:100A60000116A0E14C00000A0336A0E10152A0E308
:100A7000233285E1223C83E10224A0E1215285E179
:100A8000205C85E10064A0E102110EE2030055E163
:100A900002005601FD40A4E2034C84E20100002A5A
:100AA000A330B0E16220A0E1026056E00350C5E04F
:100AB000A330B0E16220A0E10106A0E302C7A0E3F9
:100AC00002E056E003E0D5E0026046200E50A0218F
:100AD0000C008021A330B0E16220A0E102E056E0EA
:100AE00003E0D5E0026046200E50A021AC0080213A
:100AF000A330B0E16220A0E102E056E003E0D5E0DF
:100B0000026046200E50A0212C018021A330B0E1CC
:100B10006220A0E102E056E003E0D5E0026046205A
:100B20000E50A021AC01802106E095E10D00000AE5
:100B30000552A0E1265E85E10662A0E18331A0E1D5
:100B4000A23E83E18221A0E12CC2B0E1DBFFFF1ACB
:100B5000010611E30600001A001081E10000A0E385
:100B600002C1A0E3D5FFFFEA010611E300108101F5
:100B70000000A003FDC054E2070C5C8343FFFF8A22
:100B800003C055E002C05600A0C0B0010000B0E2B2
:100B9000041AA1E07040BDE81EFF2FE102E10EE261
:100BA00021168EE1AC4094E00C5074C0041A81C14F
:100BB0007040BDC81EFF2FC1011681E300E0A0E315
:100BC000014054E231FFFFEA06E085E12FFFFFEA32
:100BD000235A0CE00C0034E10C00350190FFFF0AB1
:100BE0000C0034E10600001A014690E18CFFFF1A68
:100BF0000C0035E183FFFF1A0200A0E10310A0E121
:100C000087FFFFEA0C0035E10400001A035692E169
:100C100068FFFF0A0200A0E10310A0E180FFFFEAE5
:100C2000816090E18360921148FFFF1A814090E15A
:100C300074FFFF1A835092E15EFFFF1A78FFFFEA0C
:100C400000C0E0E3020000EA01C0A0E3000000EA07
:100C500001C0A0E304C02DE581C0A0E1CCCAF0E151
:100C600083C0A0E1CCCAF0110E00000A04D08DE2CE
:100C700081C090E183C09201030031110200300174
:100C80000000A0031EFF2F01000070E3030031E10C
:100C90000300515102005001C30FA021C30FE031E6
:100CA000010080E31EFF2FE181C0A0E1CCCAF0E18A
:100CB0000100001A01C690E10400001A83C0A0E1FF
:100CC000CCCAF0E1E8FFFF1A03C692E1E6FFFF0A93
:100CD00004009DE41EFF2FE100C0A0E10200A0E19E
:100CE0000C20A0E101C0A0E10310A0E10C30A0E1C4
:100CF000FFFFFFEA01402DE9D4FFFFEB000050E3C6
:100D0000000070430140BDE81EFF2FE108E02DE523
:100D1000F7FFFFEB0100A0030000A01308E09DE433
:100D20001EFF2FE108E02DE5F1FFFFEB0100A033EE
:100D30000000A02308E09DE41EFF2FE108E02DE560
:100D4000EBFFFFEB0100A0930000A08308E09DE40F
:100D50001EFF2FE108E02DE5DEFFFFEB0100A09371
:100D60000000A08308E09DE41EFF2FE108E02DE5D0
:100D7000D8FFFFEB0100A0330000A02308E09DE4B2
:100D80001EFF2FE181C0A0E1CCCAF0E10100001AF2
:100D900001C690E10600001A83C0A0E1CCCAF0E1D0
:100DA0000100001A03C692E10100001A0000A0E34E
:100DB0001EFF2FE10100A0E31EFF2FE18120A0E133
:100DC000022692E20C00002A0900005A3E3EE0E3AF
:100DD000C22A53E00A00009A8135A0E1023183E380
:100DE000A03A83E1020111E33302A0E100006012A6
:100DF0001EFF2FE10000A0E31EFF2FE1010690E19E
:100E00000200001A020111E20201E0031EFF2FE1BD
:100E10000000A0E31EFF2FE118009FE518309FE5BA
:100E2000000053E11EFF2F0110309FE5000053E347
:100E30001EFF2F0113FF2FE1CC010020CC01002069
:100E40000000000024009FE524309FE5003043E0CF
:100E5000A31FA0E1431181E0C110B0E11EFF2F01EB
:100E600010309FE5000053E31EFF2F0113FF2FE119
:100E7000CC010020CC0100200000000010402DE932
:100E80002C409FE50030D4E5000053E30600001A33
:100E9000E0FFFFEB1C309FE5000053E318009F15B7
:100EA00000F020130130A0E30030C4E51040BDE89D
:100EB0001EFF2FE1CC01002000000000C05F0008F1
:100EC00020309FE5000053E30500000A10402DE9A3
:100ED00014109FE514009FE500F020E31040BDE8EA
:100EE000D7FFFFEAD6FFFFEA00000000D001002094
:100EF000C05F0008124A12F0070F1ED0D11D21F06A
:100F00000701C1F5884313440A460E4802600021D8
:100F100041601344083B23F007030B48036059600A
:100F20001960991A51601360084B1960084B1960D9
:100F3000084B4FF000421A6070474FF48843E4E7D3
:100F400000020020F8010020F4010020EC01002044
:100F5000F0010020E8010020154B1A461B6883426F
:100F6000FBD3516802EB010C844509D0416800EBCA
:100F7000010C634509D00360904218D0106070479F
:100F80004068014451601046F0E710B4094C2468F1
:100F9000A3420AD05B681944416013681B68036070
:100FA000904200D0106010BC70470460F8E77047B2
:100FB000F8010020F401002038B5044600F0B8FA2A
:100FC0002A4B1B68B3B12A4B1B681C4241D1002C31
:100FD00044D004F1080214F0070F02D022F00702F7
:100FE0000832002A3CD0234B1B6893423AD3224953
:100FF0000C6804E0FFF77EFFE5E721461C466368C6
:10100000934202D22368002BF7D1184B1B68A342EE
:101010002AD00D68083523680B6063689B1A102B73
:1010200011D8626813490B689B1A0B601349096851
:101030008B4201D211490B600D4B1B681343636057
:101040000023236006E0A01843606260FFF784FF7E
:10105000E7E7002500F0F4FA284638BD0025F9E757
:101060000025F7E70025F5E70025F3E7F401002068
:10107000E8010020F0010020F8010020EC01002030
:10108000F8B138B50446A0F1080550F8043C0D4A03
:101090001268134202D050F8081C01B138BD23EA8F
:1010A000020340F8043C00F043FA54F8041C064ADA
:1010B00013680B4413602846FFF74EFF00F0C0FA98
:1010C000ECE77047E8010020F001002000F1080380
:1010D00043604FF0FF328260C3600361002303600E
:1010E000704700230361704743684B609A688A60C9
:1010F00051609960086103680133036070470369B8
:10110000416882688A60416851605A68824205D0AD
:1011100000220261186801381860704782685A60BE
:10112000F6E74FF0BF0383F31188BFF36F8FBFF370
:101130004F8FFEE706480068006880F3088862B6B3
:1011400061B6BFF34F8FBFF36F8F00DF00BF0000AA
:1011500008ED00E04FF0807340F8043C21F00101FD
:1011600040F8081C034B40F80C3C40F8202C403859
:10117000704700BF231100080000000000000000BD
:10118000074B19680868B0E8F00F80F30988BFF3CF
:101190006F8F4FF0000080F311884EF00D0E7047F6
:1011A000004700204FF0BF0383F31188BFF36F8F18
:1011B000BFF34F8F024A136801331360704700BFBB
:1011C00000000020034A1368013B13600BB983F34E
:1011D000118870470000002000000000000000009F
:1011E000EFF30980BFF36F8F0D4B1A6820E9F00F02
:1011F00010602DE908404FF0BF0080F3118800F027
:10120000D1FA4FF0000080F31188BDE8084019685A
:101210000868B0E8F00F80F30988BFF36F8F70475C
:101220000047002008B54FF0BF0383F31188BFF3D8
:101230006F8FBFF34F8F00F083F928B14FF0E02399
:101240004FF08052C3F8042D002383F3118808BDAA
:101250004FF0E023024A5A6107221A61704700BF2B
:101260003F19010008B54FF0E023D3F8202D42F4D8
:101270007F02C3F8202DD3F8202D42F07F42C3F81F
:10128000202DFFF7E5FF034B00221A60FFF752FF06
:10129000FFF747FF00000020084B1B681B6823B9BD
:1012A000074B4FF0FF321A607047044B1B68DB6836
:1012B000DB685A68024B1A60704700BF7046002016
:1012C0000846002010B50446006BFFF7D9FE204603
:1012D000FFF7D6FE10BD2DE9F84307469846089D56
:1012E000DDF824900A9C266B02F18042013A06EB5D
:1012F000820626F007064FF0000CBCF10F0F09D84C
:1013000011F80C2004EB0C0383F8342012B10CF11B
:10131000010CF2E7002384F84330042D00D90425A2
:10132000E562201DFFF7DDFE04F11800FFF7D9FE8E
:101330002461C5F10505A56164620023636484F836
:101340004830424639463046FFF704FF2060B9F185
:10135000000F01D0C9F80040BDE8F88338B500247B
:1013600007E004EB840293000E481844FFF7AEFE3A
:101370000134042CF5D90C4D2846FFF7A7FE0B4C81
:101380002046FFF7A3FE0A48FFF7A0FE0948FFF733
:101390009DFE0948FFF79AFE084B1D60084B1C6034
:1013A00038BD00BF9C4600208846002074460020BF
:1013B00058460020444600202C460020704600205D
:1013C0006C46002010B50446FFF7ECFE214A136876
:1013D00001331360204B1B685BB1204B1B686BB95A
:1013E0001D4B1B68DA6AE36A9A4207D81A4B1C60E5
:1013F00004E0194B1C601368012B28D0184A1368AD
:1014000001331360E06A01238340164A11680B43DD
:10141000136000EB8000211D134B03EB8000FFF7EE
:1014200063FEFFF7CFFE0D4B1B687BB10A4B1B68B9
:10143000DA6AE36A9A4209D24FF0E0234FF0805211
:10144000C3F8042DBFF34F8FBFF36F8F10BDFFF7AD
:1014500085FFD3E728460020004700201C460020D7
:101460000C460020204600209C4600202DE9F04339
:1014700085B007460E4614461D469000FFF79CFDBA
:10148000F8B181464C20FFF797FD804698B1C0F82F
:1014900030900023039302900D9B01930C9B0093CB
:1014A0002B46224631463846FFF715FF4046FFF7E8
:1014B00089FF012007E04846FFF7E2FD4FF0FF30CB
:1014C00001E04FF0FF3005B0BDE8F08300B583B018
:1014D000114B019300230093802210491048FFF71D
:1014E000C5FF012802D003B05DF804FB4FF0BF0335
:1014F00083F31188BFF36F8FBFF34F8F094B4FF00A
:10150000FF321A60084B01221A60084B00221A6051
:10151000FFF7A8FEE7E700BF04460020F05F0008E1
:101520007D170008084600201C46002024460020A5
:10153000024A136801331360704700BF0046002061
:10154000F8B5344B1B68002B58D1334B1E6801365D
:101550001E6086B1314B1B68B34245D90027304B22
:101560001B68DB6A03EB83039A002E4B9B58012B0D
:1015700049D9012747E02C4A11682C4B18681060A4
:1015800019602B4A136801331360FFF785FEE1E70A
:101590000127254B1B681B6843B3234B1B68DB6883
:1015A000DC6863689E4226D3251D2846FFF7A7FD09
:1015B000A36A1BB104F11800FFF7A1FDE36A012241
:1015C0009A401C49086802430A6003EB83039A00AF
:1015D000294614481044FFF787FDE26A104B1B6848
:1015E000DB6A9A42D4D2D4E70027D2E70B4B4FF004
:1015F000FF321A60B3E7094A1360B0E70E4A136876
:101600000133136000270D4B1B6803B101273846D7
:10161000F8BD00BF004600202446002008460020F8
:10162000004700209C460020704600206C460020A9
:1016300010460020204600201846002014460020B6
:1016400038B5FFF7AFFD2E4B1A68013A1A601B68D8
:10165000002B4FD12B4B1B680BB900244BE000240F
:10166000294B1B681BB3284BDB68DC6804F11800AE
:10167000FFF745FD251D2846FFF741FDE06A0123E0
:101680008340224A11680B43136000EB8000294617
:101690001F4B03EB8000FFF727FDE26A1D4B1B6821
:1016A000DB6A9A42DCD31C4B01221A60D8E70CB1EA
:1016B000FFF7F2FD194B1C6884B9174B1C68D4B1B5
:1016C0004FF0E0234FF08052C3F8042DBFF34F8F4B
:1016D000BFF36F8F01240EE0013C07D0FFF730FF0E
:1016E0000028F9D00C4B01221A60F5E70B4B0022C1
:1016F0001A60E2E70024FFF765FD204638BD00BF11
:1017000000460020284600205846002020460020A1
:101710009C46002000470020144600201846002068
:10172000134B1B6813B310B5FFF702FF114B1C6876
:10173000FFF786FF24B90E4B1B68002BF4D110BDB8
:10174000FFF730FD0B4BDB68DC68201DFFF7D7FC93
:10175000094A1368013B1360054A1368013B136093
:10176000FFF730FD2046FFF7ADFDE4E7704700BF0F
:1017700040460020444600202846002008B5FFF7D8
:10178000CFFF074B1B68012BF9D94FF0E0234FF037
:101790008052C3F8042DBFF34F8FBFF36F8FEEE776
:1017A0009C460020184B1B681BB1184B01221A6085
:1017B0007047164B00221A60154B1B68B3FA83F36F
:1017C000DBB2C3F11F03134803EB83018A00024419
:1017D00051684968516003EB830C4FEA8C02083270
:1017E0000244914209D003EB83039A00094B13444E
:1017F0005B68DA68084B1A60704748686246910077
:10180000044A0A445060EEE70046002014460020D7
:10181000204600209C4600200047002030B5CB78B1
:1018200003F00F02964613F0100F03D091F802E078
:101830004EEA020E0B78FBB10568002301E042611D
:101840000133072B17D801229A40B1F800C032EAC1
:101850000C0CF5D19C004FF00F0C0CFA04FC25EA9F
:101860000C050EFA04F42543CC78282CE7D0482C3C
:10187000E6D10261E4E705600B88FF2B25D94568B6
:10188000002303E0CC78482C1CD00133072B1BD855
:1018900003F1080C012202FA0CF2B1F800C032EA9E
:1018A0000C0CF2D19C004FF00F0C0CFA04FC25EA52
:1018B0000C0C0EFA04F444EA0C05CC78282CE1D187
:1018C0004261DFE70261E0E7456030BD21B1054AD2
:1018D0009369034393617047024A936923EA0003C3
:1018E00093617047001002408088C0F30800704781
:1018F000C1F3421201F01F0C012303FA0CF3012A79
:101900000FD0022A11D0828A92B21340090A012212
:1019100002FA01F1028892B20A4053B15AB900208A
:101920007047828992B21340F0E7028A92B2134064
:10193000ECE70020704701207047090A01238B4023
:101940009BB2DB439BB203807047000000F08AF833
:101950000B480C490C4A002302E0D458C45004330D
:10196000C4188C42F9D3094A094C002301E01360E2
:101970000432A242FBD301F037F900F0B9F8704706
:1019800000000020CC010020BC630008CC01002036
:101990005C480020FEE7000082B000230193009322
:1019A0002C4A136843F4803313602A4B1B6803F4FA
:1019B00000330093019B01330193009B1BB9019BF2
:1019C000B3F5A06FF1D1234B1B6813F4003F06D091
:1019D00001230093009B012B04D002B07047002329
:1019E0000093F7E71C4B1A6842F010021A601A685D
:1019F00022F003021A601A6842F002021A60A3F58C
:101A000080535A685A605A685A605A6842F4806231
:101A10005A605A6822F47C125A605A6842F4E812FA
:101A20005A601A6842F080721A600A4B1B6813F001
:101A3000007FFAD0074B5A6822F003025A605A68B6
:101A400042F002025A60034B5B6803F00C03082B60
:101A5000F9D1C2E7001002400020024008B5FFF7AC
:101A60009BFF08BD08B5104B1A6842F001021A60CE
:101A700059680E4A0A405A601A6822F0847222F4A9
:101A800080321A601A6822F480221A605A6822F49E
:101A9000FE025A604FF41F029A60FFF7DFFF044B0B
:101AA0004FF000629A6008BD001002400000FFF88D
:101AB00000ED00E010B540F225510A48FFF718FF8D
:101AC000012800D010BD074C2046FFF70DFF064B44
:101AD0001870064B01221A7040F225512046FFF77C
:101AE0002CFFEFE7003801400547002004470020A5
:101AF00000B585B001211020FFF7E8FE4FF4005338
:101B0000ADF80C3010238DF80F3003238DF80E3014
:101B100003A90848FFF782FE0748019002230093BB
:101B20000023802205490068FFF7A0FCFFF7CEFCE8
:101B3000FEE700BF0010014008470020F85F0008E2
:101B40007047FEE7FEE7FEE7FEE77047000053E35D
:101B5000F0472DE90350A0E1023183B20350A0B158
:101B60000030A0A32D30A0B320D04DE250809DE5E1
:101B70000240A0E12080C8E30240A0B148209DE5DA
:101B8000460058E30030C2E540609DE50330A00305
:101B90004CA09DE50200000A450058E30160860262
:101BA0000230A0E31C208DE210208DE518208DE28C
:101BB00048048DE80C208DE50530A0E10420A0E16B
:101BC000CA0400EB470058E30070A0E10B00001AC4
:101BD00044309DE5010013E3069080101B00001ABD
:101BE0000700A0E11C309DE554209DE5073043E04F
:101BF000003082E520D08DE2F047BDE81EFF2FE1E6
:101C0000460058E3069080E01000001A0080D0E5FE
:101C1000303048E2008073E20380A8E00020A0E3B7
:101C20000030A0E30400A0E10510A0E136FCFFEBCA
:101C3000000050E30080A01301800802000058E378
:101C40000160661200608A1500309AE5039089E011
:101C50000020A0E30030A0E30400A0E10510A0E113
:101C600029FCFFEB3020A0E3000050E31C908D1511
:101C70001C309DE5090053E1D8FFFF2A011083E2E3
:101C80001C108DE50020C3E5F8FFFFEAF7432DE9BE
:101C9000004051E22D30A0B32B30A0A3004064B22D
:101CA000090054E30050A0E10020C0E50130C0E588
:101CB000220000DA07808DE20860A0E194909FE5A1
:101CC0000400A0E10A10A0E3A3F9FFEB0430A0E1B7
:101CD0000870A0E1932984E0301081E2630053E3AF
:101CE000011047E5018048E2A441A0E1F3FFFFCAEB
:101CF000023047E20310A0E1304084E2014048E5B1
:101D0000012085E2060053E10900003A010056E196
:101D10000000A03309308DE207004320023085E245
:101D2000030080E0050040E00CD08DE2F043BDE808
:101D30001EFF2FE10100D3E40100E2E5F0FFFFEA1E
:101D40003030A0E3034084E00230C0E50340C5E545
:101D5000040080E2F2FFFFEACDCCCCCCF04F2DE9BD
:101D60004CD04DE20140A0E170809DE50260A0E111
:101D70000370A0E10050A0E1BD0300EB003090E54E
:101D80000300A0E12C308DE5E0F8FFFA0030A0E37D
:101D900040308DE5003098E5073083E20730C3E33B
:101DA0000600B3E818A0D4E520108DE524208DE5C9
:101DB00000B094E5003088E50230A0E10120A0E108
:101DC000482084E54C3084E524309DE520809DE565
:101DD0000291C3E330008DE50020E0E30800A0E1BC
:101DE0000910A0E1A4369FE5E5FBFFEB000050E3FE
:101DF0002300001A0020E0E30800A0E10910A0E1A0
:101E000088369FE5CCFBFFEB000050E31C00001A76
:101E10000020A0E30030A0E320108DE2030091E851
:101E2000BFFBFFEB000050E32D30A0134330C4157F
:101E30005C869FE55C369FE547005AE30380A091EE
:101E40000330A0E30090A0E3103084E50430CBE33E
:101E5000003084E50630A0E10410A0E10500A0E117
:101E600000708DE544208DE28E0100EB010070E3EF
:101E70007700001A0000E0E34CD08DE2F04FBDE89F
:101E80001EFF2FE120308DE20C0093E80200A0E15C
:101E90000310A0E1BAFBFFEB000050E30600000ACC
:101EA00024309DE5000053E32D30A0B3E8859FE585
:101EB0004330C4B5E4359FE5DEFFFFEA043094E526
:101EC000010073E30630A003DF900AE20300000A7A
:101ED000000053E3470059030100001A0130A0E35A
:101EE000043084E50030A0E301BB8BE300B084E55F
:101EF00018308DE540308DE214308DE53C308DE2B8
:101F00000C308DE53B308DE210A08DE508308DE57D
:101F100004B08DE5043094E50500A0E100308DE5C6
:101F200020308DE20C0093E807FFFFEB470059E3F8
:101F30000080A0E13C109DE51B00001A030071E346
:101F4000020000BA043094E5010053E12F0000AA1A
:101F500002A04AE2FFA00AE20A20A0E1011041E249
:101F6000500084E23C108DE547FFFFEB40209DE5EB
:101F7000003082E0010052E30090A0E1103084E5DF
:101F8000020000CA002094E5010012E30100000AEB
:101F9000013083E2103084E53B30DDE5000053E39F
:101FA0002D30A0134330C415A9FFFFEA65005AE3A2
:101FB000E8FFFF9A66005AE31500001A000051E39B
:101FC000043094E5090000DA000053E3101084E5C2
:101FD0000200001A002094E5010012E31400000A38
:101FE000013083E2013083E0103084E5100000EA24
:101FF000000053E30300001A002094E5010012E3FF
:102000000130A003F7FFFF0A023083E2F5FFFFEA89
:1020100067A0A0E340309DE5010053E1070000CA3E
:10202000003094E5010013E3101084E501308112C3
:10203000ECFFFF1A0090A0E3581084E5D5FFFFEAFB
:10204000000051E30120A0C3022061D2023083E0EE
:10205000E4FFFFEA003094E5010B13E31030940530
:102060005700000A65005AE3BD00009A0020A0E373
:102070000030A0E3481084E2030091E822FBFFEB6C
:10208000000050E32D00000A0130A0E30610A0E19B
:102090000500A0E108249FE50FE0A0E117FF2FE174
:1020A000010070E372FFFF0A3C308DE2080193E803
:1020B000080053E1020000BA003094E5010013E388
:1020C0000C00000A2C208DE20610A0E10500A0E122
:1020D0000C0092E80FE0A0E117FF2FE1010070E390
:1020E0000090A013018048121AA0841260FFFF0A1A
:1020F000090058E1070000CA003094E5020013E32C
:10210000DF00001A0C0094E544309DE5030050E127
:102110000300A0B157FFFFEA0130A0E30A20A0E1CD
:102120000610A0E10500A0E10FE0A0E117FF2FE1FC
:10213000010070E34EFFFF0A019089E2EBFFFFEA26
:102140003C309DE5000053E32F0000CA0130A0E3BE
:102150000610A0E10500A0E144239FE50FE0A0E107
:1021600017FF2FE1010070E341FFFF0A3C308DE2D1
:10217000080293E8033099E10200001A003094E568
:10218000010013E3DBFFFF0A2C208DE20610A0E123
:102190000500A0E10C0092E80FE0A0E117FF2FE19D
:1021A000010070E300A0A0131AB0841230FFFF0AF0
:1021B0003C309DE5003063E20A0053E1080000CAAC
:1021C0000930A0E10820A0E10610A0E10500A0E18F
:1021D0000FE0A0E117FF2FE1010070E3C5FFFF1A38
:1021E00023FFFFEA0130A0E30B20A0E10610A0E1ED
:1021F0000500A0E10FE0A0E117FF2FE1010070E36F
:102200001BFFFF0A01A08AE2E8FFFFEA589094E56D
:1022100040A09DE509005AE10A90A0B1000059E3F1
:10222000270000CA0030A0E320308DE5C99FC9E136
:102230001A2084E258B094E520109DE509304BE067
:10224000010053E1270000CA3C309DE503005AE13C
:10225000310000CA003094E5010013E32E00001A9B
:102260003C909DE50B304AE009904AE0030059E1BB
:102270000390A0A1000059E3300000CA0080A0E351
:10228000C99FC9E11AB084E23C309DE503304AE0C1
:10229000093043E0080053E196FFFFDA0130A0E384
:1022A0000B20A0E10610A0E10500A0E10FE0A0E1F5
:1022B00017FF2FE1010070E3EDFEFF0A018088E2C5
:1022C000F0FFFFEA0930A0E10820A0E10610A0E13C
:1022D0000500A0E10FE0A0E117FF2FE1010070E38E
:1022E000CFFFFF1AE2FEFFEA0130A0E30610A0E1F3
:1022F0000500A0E134208DE50FE0A0E117FF2FE1FC
:10230000010070E3DAFEFF0A20309DE5013083E230
:1023100020308DE534209DE5C5FFFFEA2C208DE2BD
:102320000610A0E10500A0E10C0092E80FE0A0E19A
:1023300017FF2FE1010070E3C8FFFF1ACCFEFFEA90
:102340000930A0E10610A0E10500A0E10B2088E023
:102350000FE0A0E117FF2FE1010070E3C6FFFF1AB5
:10236000C3FEFFEA40A09DE501005AE3010000CA58
:10237000010013E32A00000A0130A0E30820A0E1D5
:102380000610A0E10500A0E10FE0A0E117FF2FE19A
:10239000010070E3B6FEFF0A2C208DE20610A0E1DA
:1023A0000500A0E10C0092E80FE0A0E117FF2FE18B
:1023B000010070E3AEFEFF0A0020A0E30030A0E3BE
:1023C000481084E2030091E84FFAFFEB01A04AE2D3
:1023D000000050E30A30A001012088021200000A28
:1023E0000080A0E31AB084E2080000EA0130A0E314
:1023F0000B20A0E10610A0E10500A0E10FE0A0E1A4
:1024000017FF2FE1010070E399FEFF0A018088E2C7
:102410000A0058E1F4FFFFBA0930A0E1502084E23D
:1024200068FFFFEA0130A0E30820A0E10610A0E168
:102430000500A0E10FE0A0E117FF2FE1010070E32C
:10244000F4FFFF1A8AFEFFEA0130A0E30920A0E1B1
:102450000610A0E10500A0E10FE0A0E117FF2FE1C9
:10246000010070E382FEFF0A018088E20C3094E5EF
:1024700044109DE5013043E0080053E1F1FFFFCA3D
:102480001FFFFFEA0080A0E3199084E2F6FFFFEA55
:10249000FFFFEF7F03600008FF5F00080B6000088C
:1024A000076000080F600008F0472DE90260A0E116
:1024B0000380A0E1082091E5103091E5020053E18E
:1024C0000230A0B1003086E54320D1E5000052E3A0
:1024D0000130831200308615003091E5200013E3AF
:1024E000003096150230831200308615005091E5B9
:1024F000065015E20070A0E10140A0E120909DE5AA
:1025000019A081022000000A4330D4E5002094E5A0
:10251000003053E20130A013200012E32A00001A19
:102520000810A0E10700A0E1432084E20FE0A0E151
:1025300019FF2FE1010070E32000000A003094E54C
:10254000063003E2040053E30050A0130030960568
:102550000060A0E30C509405102094E50350450062
:10256000083094E5C55FC501020053E1023043C065
:10257000035085C01A4084E2060055E11B00001A92
:102580000000A0E30E0000EA015085E20C3094E563
:10259000002096E5023043E0050053E1D9FFFFDA61
:1025A0000130A0E30A20A0E10810A0E10700A0E1AB
:1025B0000FE0A0E119FF2FE1010070E3F1FFFF1A26
:1025C0000000E0E3F047BDE81EFF2FE13000A0E38C
:1025D000031084E04300C1E5012083E24510D4E507
:1025E000022084E04310C2E5023083E2CBFFFFEA21
:1025F0000130A0E30420A0E10810A0E10700A0E161
:102600000FE0A0E119FF2FE1010070E3EBFFFF0AEB
:10261000016086E2D7FFFFEAF04F2DE918E0D1E52F
:102620001CD04DE278005EE30070A0E10140A0E123
:102630000280A0E10390A0E140C09DE50700008A70
:1026400062005EE343A081E20700008A00005EE3CF
:102650008A00000A58005EE3F8B29F056500000A90
:1026600042E0C4E5426084E20D0000EAE8229FE512
:1026700063304EE2150053E3F8FFFF8A033083E036
:10268000F33092E103F18FE00000A0E100309CE51F
:10269000042083E2003093E500208CE54230C1E560
:1026A000426081E20130A0E3840000EA00209CE562
:1026B000001091E5043082E2800011E300308C15B7
:1026C000005092150400001A005092E5400011E3FA
:1026D0000558A01100308CE54558A011000055E3C5
:1026E0002D30A0B34330C4B50A30A0E364B29FE5F7
:1026F000005065B2042094E5000052E30A60A0E1B6
:10270000082084E5040000BA001094E5022095E159
:102710000410C1E3001084E50A00000A0310A0E1E0
:102720000500A0E10C308DE5B9F6FFEB0120DBE7F9
:10273000012066E50520A0E10C309DE5020053E193
:102740000050A0E1F4FFFF9A080053E30800001ACC
:10275000003094E5010013E30500000A103094E511
:10276000042094E5030052E13030A0D3013046D577
:10277000016046D206A04AE010A084E50830A0E13E
:102780000410A0E10700A0E100908DE514208DE287
:1027900044FFFFEB010070E34C00001A0000E0E38F
:1027A0001CD08DE2F04FBDE81EFF2FE1002091E527
:1027B00000309CE5800012E3045093E40200001A0C
:1027C000400012E30558A0112558A0116F005EE3E8
:1027D00000308CE57CB19FE50830A0030A30A013DF
:1027E000160000EA003091E5203083E3003081E5F7
:1027F00078E0A0E364B19FE545E0C4E5003094E5EE
:1028000000209CE5800013E3045092E40200001ACB
:10281000400013E30558A0112558A011010013E34F
:102820002030831300208CE500308415000055E330
:10283000003094052030C303003084051030A0E33D
:102840000020A0E34320C4E5A9FFFFEA00309CE597
:10285000000091E5142091E5041083E200108CE55E
:10286000800010E3003093E50100000A002083E5BA
:10287000020000EA400010E3B020C311FAFFFF0A93
:102880000030A0E30A60A0E1103084E5BAFFFFEA5F
:1028900000309CE5042083E200208CE5006093E595
:1028A000042091E50600A0E10010A0E3F30000EB96
:1028B000000050E30600401004008415043094E545
:1028C000103084E50030A0E34330C4E5AAFFFFEAFE
:1028D0000620A0E10810A0E10700A0E1103094E577
:1028E0000FE0A0E119FF2FE1010070E3AAFFFF0A4A
:1028F000003094E5020013E31300001A0C0094E585
:1029000014309DE5030050E10300A0B1A3FFFFEAEE
:102910000130A0E30620A0E10810A0E10700A0E13B
:102920000FE0A0E119FF2FE1010070E39AFFFF0A19
:10293000015085E20C3094E514109DE5013043E030
:10294000050053E1F1FFFFCAEBFFFFEA0050A0E3EF
:10295000196084E2F6FFFFEA116000088261000856
:10296000226000080030A0E310402DE90040A0E103
:10297000003080E5043080E5083080E5BC10C0E11F
:10298000643080E5BE20C0E1103080E5143080E581
:10299000183080E50820A0E30310A0E15C0080E28D
:1029A0008A0000EB54309FE5243084E550309FE5E9
:1029B000283084E54C309FE52C3084E548309FE595
:1029C000303084E544309FE5682043E2020054E162
:1029D000030054110130A0030030A013D02082E284
:1029E000020054E101308303000053E3204084E5FA
:1029F000580084129B00001B1040BDE81EFF2FE111
:102A0000BC510008F0510008485200087C520008F0
:102A10007447002010402DE910209FE510109FE51D
:102A200010009FE54D0000EB1040BDE81EFF2FE1B8
:102A300004000020CC45000814000020041090E59C
:102A40003C309FE5030051E110402DE90040A0E13A
:102A5000DD06001B081094E528309FE5030051E1D6
:102A60000400A011D806001B0C1094E518309FE557
:102A7000030051E10400A011D306001B1040BDE883
:102A80001EFF2FE10C47002074470020DC47002088
:102A900044309FE544209FE510402DE90410A0E359
:102AA000002083E538009FE50020A0E3ACFFFFEBAA
:102AB0002C309FE50340A0E10120A0E30910A0E332
:102AC000680083E2A6FFFFEBD00084E20220A0E3CF
:102AD0001210A0E31040BDE8A1FFFFEA4448002027
:102AE000142A00080C47002010402DE908009FE53B
:102AF0005D0000EB1040BDE81EFF2FE149480020BB
:102B000010402DE908009FE5580000EB1040BDE89B
:102B10001EFF2FE14948002010402DE90040A0E1B0
:102B2000F0FFFFEB203094E5000053E30100000AC2
:102B30001040BDE8F1FFFFEA18309FE5203084E542
:102B400014309FE5003093E5000053E3F7FFFF1AD0
:102B5000CEFFFFEBF5FFFFEA3C2A000844480020C7
:102B6000F0472DE90070A0E10180A0E10240A0E162
:102B70000060A0E3085094E5049094E5019059E2C8
:102B80000500005A004094E5000054E3F8FFFF1AE6
:102B90000600A0E1F047BDE81EFF2FE1BC30D5E103
:102BA000010053E30700009AFE30D5E1010073E312
:102BB0000400000A0510A0E10700A0E10FE0A0E179
:102BC00018FF2FE1006086E1685085E2EAFFFFEA26
:102BD0000030A0E1022080E0020053E11EFF2F013F
:102BE0000110C3E4FBFFFFEA70402DE90060A0E3A1
:102BF00060509FE560409FE5054044E04441A0E10E
:102C0000040056E10900001AEC0C00EB0060A0E3A0
:102C100048509FE548409FE5054044E04441A0E11D
:102C2000040056E10600001A7040BDE81EFF2FE1C7
:102C3000043095E40FE0A0E113FF2FE1016086E28C
:102C4000EEFFFFEA043095E40FE0A0E113FF2FE16F
:102C5000016086E2F1FFFFEAB4630008B463000894
:102C6000B4630008B86300081EFF2FE11EFF2FE1C8
:102C70001EFF2FE100009FE51EFF2FE15001002005
:102C80000030A0E1FF1001E2022080E0020053E1E9
:102C90000300A0E10100001A0000A0E31EFF2FE1E5
:102CA00000C0D0E501005CE1013083E2F6FFFF1ACD
:102CB0001EFF2FE1013040E2022081E0020051E1DD
:102CC0001EFF2F0101C0D1E401C0E3E5FAFFFFEAD6
:102CD00002C0A0E11F402DE90320A0E12C309FE5B8
:102CE000003093E500005CE300E0A0E10C0093E518
:102CF0001C309F0503C0A00118309F150A108DE8F5
:102D00000E30A0E110109FE5600900EBBE0900EB5A
:102D1000100000206E60000833600008406000086A
:102D2000F04F2DE9103090E5104091E5040053E19B
:102D30000000A0B314D04DE2540000BA014044E2B8
:102D4000148081E2146080E204B198E704A196E760
:102D50000431A0E108308DE501B08BE2043188E058
:102D600004308DE50070A0E1043186E00190A0E11F
:102D70000A00A0E10B10A0E10C308DE5E7F4FFEBB9
:102D80000B005AE10050A0E12100003A00A0A0E3AE
:102D900008C0A0E106E0A0E10AB0A0E148119FE56B
:102DA00004309CE4010003E095A020E02338A0E17A
:102DB0002028A0E1952323E000209EE5010000E00B
:102DC000012002E0002042E00B2082E000009EE5AE
:102DD00023A8A0E1013003E0423863E0203883E01B
:102DE000012002E0032882E143B8A0E104309DE520
:102DF0000C0053E104208EE4E8FFFF2A08309DE533
:102E0000033096E7000053E30C309D050430430285
:102E10002600000A0910A0E10700A0E1160800EB57
:102E2000000050E3180000BA0610A0E100C0A0E3C3
:102E3000B4009FE5042098E400E091E5009002E0F2
:102E400000300EE0093043E00C3083E02228A0E19E
:102E5000432862E02E2882E0003003E0023883E15C
:102E6000043081E404309DE5080053E142C8A0E14C
:102E7000EFFFFF2A042196E7043186E0000052E3C9
:102E8000043043021300000A015085E20500A0E16E
:102E900014D08DE2F04FBDE81EFF2FE1002092E537
:102EA000000052E3043043E20300001A014044E210
:102EB000030056E10320A0E1F7FFFF3A104087E549
:102EC000D3FFFFEA002092E5000052E3043043E222
:102ED0000300001A014044E2030056E10320A0E190
:102EE000F7FFFF3A104087E5E6FFFFEAFFFF00002B
:102EF000F04F2DE90260A0E10370A0E11C2090E5F5
:102F000064D04DE2000052E30090A0E140608DE506
:102F100044708DE594409DE50C00001A1000A0E37C
:102F2000A90400EB000050E30020A0E1EF10A00393
:102F30001C0089E5003F9F05E600000A0030A0E381
:102F4000043080E5083080E5003080E50C3080E515
:102F5000001092E5000051E30900000A0130A0E3EF
:102F6000042092E51332A0E1042081E5083081E5D8
:102F70000900A0E1FF0500EB0020A0E31C3099E56B
:102F8000002083E5008057E20130A0B30030A0A309
:102F9000003084B5003084A5A03E9FE50281C8B30F
:102FA00044808DB50830D3E11200001AFF84C8E3D5
:102FB0008C3E9FE590209DE50F86C8E3068098E152
:102FC000003082E57304000A98309DE5000053E369
:102FD000703E9FE510308DE50200000A033083E269
:102FE00098209DE5003082E510009DE564D08DE2DB
:102FF000F04FBDE81EFF2FE140408DE2180094E83D
:1030000028308DE52C408DE50020A0E30030A0E3C2
:1030100028108DE2030091E83BF7FFEB00A050E29F
:103020000A00000A0130A0E390209DE5003082E50F
:1030300098309DE5000053E30C3E9F1598209D15A8
:1030400000308215043E9FE510308DE5E5FFFFEA74
:1030500058308DE204308DE55C308DE200308DE536
:103060000900A0E128308DE20C0093E80B0800EB8A
:10307000284AB0E10C008DE558509DE53F00000A5C
:103080002C309DE5FF34C3E30F36C3E3FF3583E304
:10309000FF4F44E228108DE2030091E854A08DE533
:1030A000033683E3034044E20310A0E10020A0E3E1
:1030B0009C3D9FE5B3F4FFEB982D9FE5983D9FE580
:1030C000B7F5FFEB942D9FE5943D9FE5AEF4FFEB44
:1030D0000060A0E10400A0E10170A0E177F5FFEB42
:1030E000802D9FE5803D9FE5ADF5FFEB0020A0E141
:1030F0000130A0E10600A0E10710A0E1A2F4FFEB7F
:103100000060A0E10170A0E12BF7FFEB0020A0E33D
:103110000080A0E10030A0E30600A0E10710A0E1DC
:10312000FFF6FFEB000050E30600000A0800A0E1F4
:1031300062F5FFEB0620A0E10730A0E1F2F6FFEB1D
:10314000000050E301804802160058E31D00008A89
:10315000183D9FE5883183E00C0093E828108DE24C
:10316000030091E8EEF6FFEB000050E30030A013FF
:10317000018048121400001A50008DE5130000EA87
:103180005C409DE5044085E0433E84E2023083E2FA
:10319000200053E3412E84C2022082C2403063C229
:1031A0003602A0C1203063D2180380C11603A0D11B
:1031B00039F5FFEB0120A0E31F3641E254208DE5F5
:1031C000014044E2B7FFFFEA0130A0E350308DE553
:1031D000045045E0013055E224308DE50130654270
:1031E0000030A05314308D450030A04314308D556D
:1031F00024308D45000058E3150000BA24309DE5C9
:10320000083083E024308DE50030A0E33C808DE57C
:1032100034308DE588309DE5090053E33F00008A96
:10322000050053E3043043C288308DC588309DE5E6
:103230003C2C9FE5023043E20060A0C30160A0D3B4
:10324000030053E34000008A0330D2E703F18FE02C
:103250000000A0E114309DE5083043E014308DE516
:10326000003068E234308DE50030A0E33C308DE57D
:10327000E7FFFFEA0130A0E338308DE58C309DE5B3
:10328000033088E030308DE5013083E2010053E304
:1032900020308DE50130A0B30010A0E30420A0E3AE
:1032A0001C0099E514C082E203005CE101E081E2C8
:1032B0002800009A041080E50900A0E1F30400EB67
:1032C000003050E210308DE52500001A0020A0E10A
:1032D000A03B9FE5A01B9FE5A00B9FE57BFEFFEBBE
:1032E0000130A0E338308DE58C309DE5000053E3DC
:1032F00030308DC520308DC5E6FFFFCA0130A0E318
:103300000320A0E130308DE520308DE50C0000EA8F
:103310000030A0E3F2FFFFEA0030A0E3D5FFFFEAB0
:103320000160A0E30030A0E338608DE588308DE5D2
:103330000030E0E30020A0E330308DE520308DE563
:103340001230A0E38C208DE5D2FFFFEA0130A0E32C
:1033500038308DE5F5FFFFEA0E10A0E18220A0E1F4
:10336000CFFFFFEA1C3099E510209DE5002083E5A2
:1033700020309DE50E0053E30060A08301600692BB
:10338000000056E37E00000A000058E32D0000DA3A
:10339000D83A9FE50F2008E2823183E0010C18E360
:1033A000000C93E84852A0E11400000AD03A9FE5CF
:1033B00028108DE2030091E8203083E20C0093E8AE
:1033C0009BF5FFEB0340A0E318008DE51C108DE595
:1033D0000F5005E2A86A9FE5000055E30D00001AB2
:1033E0000A20A0E10B30A0E118108DE2030091E863
:1033F0008FF5FFEB00A0A0E101B0A0E1240000EAFE
:1034000028408DE2180094E818308DE51C408DE5C9
:103410000240A0E3EEFFFFEA010015E30600000A08
:103420000A00A0E10B10A0E10C0096E8DCF4FFEB31
:1034300000A0A0E101B0A0E1014084E2C550A0E1FC
:10344000086086E2E3FFFFEA8C00000A005068E2B1
:10345000183A9FE50F2005E2823183E00C0093E8E3
:1034600028108DE2030091E8CDF4FFEB0240A0E3C9
:1034700000A0A0E101B0A0E10030A0E3007A9FE548
:103480004552A0E1000055E37300001A000053E329
:10349000D7FFFF1A50309DE5000053E37B00000A80
:1034A0000020A0E30A00A0E10B10A0E1D4399FE5C1
:1034B0001BF6FFEB000050E37400000A20309DE58E
:1034C000000053E37100000A30309DE5000053E333
:1034D0002B0000DA013048E20A00A0E10B10A0E165
:1034E00018308DE50020A0E39C399FE5ACF4FFEB9C
:1034F00000A0A0E101B0A0E130709DE5014084E2B0
:103500000400A0E16DF4FFEB0A20A0E10B30A0E184
:10351000A3F4FFEB0020A0E370399FE59AF3FFEBE3
:103520000040A0E10D5541E2000057E348408DE521
:103530004C508DE55800001A0020A0E30A00A0E1DD
:103540000B10A0E148399FE58EF3FFEB0420A0E1CA
:103550000530A0E100A0A0E101B0A0E102F6FFEB80
:10356000000050E31802001A0420A0E10A00A0E1C4
:103570000B10A0E1023185E2E9F5FFEB000050E31A
:103580001F00001A5C309DE50320E0E10E0058E3C7
:10359000A22FA0E10020A0C3000052E31401000A02
:1035A000C8389FE5883183E0000C93E820309DE522
:1035B000000053E30030A0C30130A0D38C209DE570
:1035C000A23F13E0B400000A20309DE5000053E361
:1035D0000B00001A0020A0E3B4389FE50A00A0E128
:1035E0000B10A0E16EF4FFEB0020A0E10130A0E1A0
:1035F00028108DE2030091E8CFF5FFEB000050E3C7
:10360000F401000A0050A0E30540A0E18C309DE5E4
:103610000330E0E110609DE518308DE50470A0E115
:103620000040A0E30510A0E10900A0E1510400EB77
:10363000000057E39000000A000054E30700541113
:103640000410A0110900A0114A04001B0710A0E1FA
:103650000900A0E1470400EB870000EA010015E340
:103660000300000A0C0097E84DF4FFEB0630A0E1E0
:10367000014084E2C550A0E1087087E280FFFFEAC4
:103680000240A0E328B08DE2000C9BE880FFFFEA37
:1036900018808DE520709DE598FFFFEACC379FE507
:1036A000873183E0030013E938309DE5000053E3E0
:1036B0003A00000A0020A0E10130A0E10000A0E3F0
:1036C000D0179FE5DAF4FFEB48308DE20C0093E869
:1036D0002CF3FFEB10309DE50360A0E148008DE581
:1036E0004C108DE5077083E00B10A0E10A00A0E10B
:1036F000B1F5FFEB0040A0E1F0F3FFEB0020A0E10B
:103700000130A0E10A00A0E10B10A0E11DF3FFEBE6
:10371000304084E20140C6E448308DE20C0093E87A
:1037200000A0A0E101B0A0E17DF5FFEB000050E3B7
:103730005100001A0A20A0E10B30A0E10000A0E334
:1037400040179FE50FF3FFEB48308DE20C0093E844
:1037500073F5FFEB000050E38900001A070056E103
:1037600087FFFF0A0020A0E31C379FE548108DE289
:10377000030091E80AF4FFEB0020A0E348008DE588
:103780004C108DE500379FE50A00A0E10B10A0E189
:1037900003F4FFEB00A0A0E101B0A0E1D1FFFFEA3C
:1037A00048308DE20C0093E8FDF3FFEB10309DE50F
:1037B0000350A0E148008DE54C108DE5076083E0E3
:1037C0000B10A0E10A00A0E17BF5FFEB0040A0E1B7
:1037D000BAF3FFEB0020A0E10130A0E10A00A0E174
:1037E0000B10A0E1E7F2FFEB304084E20140C5E4BA
:1037F000060055E100A0A0E101B0A0E12000001A00
:1038000010309DE50020A0E348108DE2030091E810
:10381000076083E07C369FE5DBF2FFEB0020A0E150
:103820000130A0E10A00A0E10B10A0E14EF5FFEB92
:10383000000050E35200001A48308DE20C0093E87B
:103840000000A0E34C169FE5CEF2FFEB0020A0E1C4
:103850000130A0E10A00A0E10B10A0E130F5FFEB80
:10386000000050E346FFFF0A0630A0E1012076E5A4
:10387000300052E3FBFFFF0A0360A0E118809DE5E2
:10388000320000EA0020A0E3FC359FE5C4F3FFEB23
:1038900000A0A0E101B0A0E1C8FFFFEA0040A0E362
:1038A00010609DE5E0559FE50A20A0E10B30A0E106
:1038B00028108DE2030091E85DF4FFEB3EF5FFEB8D
:1038C0000070A0E17DF3FFEB0A20A0E10B30A0E146
:1038D000B3F3FFEB0020A0E10130A0E128108DE25E
:1038E000030091E8A7F2FFEB30C087E201C0C6E415
:1038F00010C09DE520E09DE50CC046E00C005EE1B7
:103900000020A0E10130A0E12C00001A9EF2FFEBA4
:103910000A20A0E10B30A0E10040A0E10150A0E1AD
:1039200011F5FFEB000050E31400001A0A20A0E19B
:103930000B30A0E10400A0E10510A0E1F2F4FFEBE0
:10394000000050E30100000A010017E30B00001A19
:103950000900A0E10C109DE5860300EB0030A0E318
:1039600090209DE50030C6E5013088E2003082E518
:1039700098309DE5000053E30060831599FDFFEA50
:1039800018808DE50630A0E10360A0E1012073E519
:10399000390052E30600001A10209DE5030052E1B1
:1039A000F8FFFF1A18209DE5012082E218208DE51E
:1039B0003020A0E3012082E20020C3E5AEFFFFEA51
:1039C0000420A0E10530A0E175F3FFEB0020A0E1A9
:1039D0000130A0E128208DE52C308DE50020A0E30A
:1039E0000030A0E3C8F4FFEB000050E3ADFFFF0A96
:1039F000D6FFFFEA38109DE5000051E334509D05E5
:103A000014609D0538409D051400000A88109DE54E
:103A1000010051E3B40000CA54209DE5000052E3C8
:103A200058309D05433E831234509DE50330831288
:103A30003630630214609DE514209DE5032082E08A
:103A400014208DE524209DE50110A0E3033082E0E1
:103A50000900A0E124308DE5DB0300EB0040A0E18C
:103A600024309DE5000056E300005313080000DAFF
:103A7000030056E10630A0B114209DE5032042E08A
:103A800014208DE524209DE5036046E0033042E0EC
:103A900024308DE534309DE5000053E31C00000A1E
:103AA00038309DE5000053E3A700000A000055E30D
:103AB0000C709D051100000A0410A0E10520A0E192
:103AC0000900A0E14E0400EB0C209DE50010A0E1F0
:103AD0000040A0E10900A0E1CD0300EB0070A0E1EF
:103AE0000C109DE50900A0E1220300EB34309DE5B8
:103AF000053053E034308DE50C708D050400000A6C
:103B00000710A0E134209DE50900A0E13C0400EB92
:103B10000C008DE50110A0E30900A0E1AA0300EB71
:103B20003C309DE5000053E30050A0E1A001000AF5
:103B30000320A0E10010A0E10900A0E1300400EBA7
:103B400088309DE5010053E30050A0E10070A0C360
:103B5000190000CA40309DE5000053E30070A01337
:103B60001200001A44309DE5FF34C3E30F36C3E36F
:103B7000000053E340709D150C00001A44309DE591
:103B80000271C3E3277AA0E1077AA0E1000057E3BE
:103B90000600000A0170A0E314309DE5013083E2C5
:103BA00014308DE524309DE5013083E224308DE52D
:103BB0003C309DE5000053E38101000A103095E59B
:103BC000033185E0100093E5430300EB200060E241
:103BD00024309DE5030080E01F0010E26600000A2B
:103BE000203060E2040053E35A0000DA14309DE50F
:103BF0001C0060E2003083E014308DE524309DE548
:103C0000006086E0003083E024308DE514309DE5CF
:103C1000000053E3040000DA0320A0E10900A0E162
:103C20000C109DE5450400EB0C008DE524309DE56E
:103C3000000053E3040000DA0510A0E10320A0E136
:103C40000900A0E13D0400EB0050A0E150309DE5EB
:103C5000000053E30400000A0510A0E10C009DE5FC
:103C6000850400EB000050E3450000BA20309DE5DC
:103C700018808DE530308DE530309DE588209DE55C
:103C8000000053E30130A0D30030A0C3020052E390
:103C90000030A0D3000053E35100000A30309DE50E
:103CA000000053E358FEFF1A0510A0E10520A0E331
:103CB0000900A0E1CF0200EB0010A0E10050A0E15C
:103CC0000C009DE56C0400EB000050E34EFEFFDAB3
:103CD0003130A0E310609DE50130C6E418309DE569
:103CE000013083E218308DE54BFEFFEA20309DE580
:103CF000015043E234309DE5050053E1080000BA6D
:103D0000055043E020309DE5000053E348FFFFAA43
:103D100014309DE520109DE5016043E00230A0E1F4
:103D200044FFFFEA34309DE53C109DE5033045E05B
:103D3000033081E03C308DE534508DE514609DE525
:103D40000250A0E120309DE53AFFFFEA34209DE5D6
:103D50000C109DE56BFFFFEAABFFFF0A14209DE509
:103D60001C3083E2032082E014208DE524209DE5B1
:103D7000036086E0033082E0A2FFFFEA0030A0E1AA
:103D8000F5FFFFEA013048E218308DE50A20A0E394
:103D90000030A0E30900A0E10C109DE5950200EBC6
:103DA00038309DE5000053E30C008DE5B1FFFF0ABC
:103DB0000410A0E10030A0E30A20A0E30900A0E184
:103DC0008C0200EB0040A0E1AAFFFFEA0750A0E14F
:103DD0000540A0E1BDFFFFEA18808DE520509DE57C
:103DE000FAFFFFEA38309DE5000053E3B400000A13
:103DF000000056E3040000DA0410A0E10620A0E170
:103E00000900A0E1CD0300EB0040A0E1000057E372
:103E10000470A0012D00000A0900A0E1041094E53F
:103E20001A0200EB006050E21D00001A0620A0E11B
:103E300040309FE560109FE526FDFFEA7C600008AA
:103E40000000F07F0F270000786000081060000875
:103E50000F6000080000F83F61436F63A787D23FFF
:103E6000B3C8608B288AC63FFB799F501344D33F69
:103E7000E8610008AE610008F4600008AF010000CE
:103E800093600008C06100080000F03F000024407B
:103E900000001C40000014400000E03FEF02000062
:103EA0006F600008102094E5022082E20221A0E168
:103EB0000C1084E20C0086E27DFBFFEB0120A0E306
:103EC0000610A0E10900A0E19C0300EB0070A0E156
:103ED00010309DE530209DE501B083E2023083E0A3
:103EE00030308DE540309DE5013003E224308DE532
:103EF00001304BE20510A0E10C009DE514308DE58A
:103F000086FBFFEB0410A0E120008DE530A080E2ED
:103F10000C009DE5D80300EB0720A0E10080A0E1A4
:103F20000510A0E10900A0E1E80300EB0C2090E5FA
:103F3000000052E30060A0E138209D150300001A44
:103F40000010A0E10C009DE5CB0300EB0020A0E1F8
:103F50000610A0E10900A0E128208DE5050200EB94
:103F600088309DE528209DE5021083E124309DE501
:103F7000031091E10B60A0E10800001A39005AE338
:103F80001D00000A000058E3010000DA20309DE522
:103F900031A083E214309DE500A0C3E5A0FDFFEA57
:103FA000000058E3040000BA88309DE5088083E1F2
:103FB00024309DE5038098E11B00001A000052E3C5
:103FC000F3FFFFDA0120A0E30C109DE50900A0E15A
:103FD0005A0300EB0510A0E10C008DE5A60300EBF1
:103FE000000050E3020000CAE9FFFF1A01001AE3D3
:103FF000E7FFFF0A39005AE3E3FFFF1A3930A0E375
:1040000014209DE50030C2E50630A0E10360A0E188
:10401000012056E5390052E3013043E25500000A21
:10402000012082E20020C3E57DFDFFEA000052E3AB
:10403000050000DA39005AE314209D1501308A1278
:10404000EDFFFF0A0030C2E575FDFFEA30309DE567
:104050000B0053E101A04BE53400000A0030A0E35F
:104060000A20A0E30C109DE50900A0E1E10100EBAE
:10407000070054E10C008DE50030A0E30A20A0E326
:104080000410A0E10900A0E10400001AD90100EB2E
:104090000040A0E10070A0E101B08BE293FFFFEAD5
:1040A000D40100EB0710A0E10040A0E10030A0E344
:1040B0000A20A0E30900A0E1CE0100EB0070A0E11E
:1040C000F4FFFFEA10609DE50510A0E10C009DE5FE
:1040D00012FBFFEB30A080E210309DE501A0C6E4AA
:1040E000032046E030309DE5020053E1060000DA8F
:1040F0000030A0E30A20A0E30900A0E10C109DE538
:10410000BC0100EB0C008DE5EEFFFFEA30309DE5D1
:10411000000053E3016043C20060A0D30470A0E13B
:104120000040A0E310309DE5012083E2026086E0BC
:104130000120A0E30C109DE50900A0E1FF0200EBC7
:104140000510A0E10C008DE54B0300EB000050E3EF
:10415000ACFFFFCA0100001A01001AE3A9FFFF1A11
:104160000630A0E10360A0E1012073E5300052E3D6
:10417000FBFFFF0A2AFDFFEA10209DE5030052E144
:10418000A1FFFF1A18309DE5013083E218308DE55C
:104190003130A0E3AAFFFFEA98309DE5000053E329
:1041A00008331FE510308DE5083083128BFBFF1AB2
:1041B0008CFBFFEA88309DE5010053E33C709DC510
:1041C00063FEFFDA0100A0E380FEFFEA10402DE964
:1041D00010309FE50010A0E1000093E51F0000EB08
:1041E0001040BDE81EFF2FE11000002070402DE9B7
:1041F00064609FE50140A0E1001096E5000051E3F6
:104200000050A0E10100001A500400EB000086E518
:104210000410A0E10500A0E14C0400EB010070E3F4
:104220000300001A0040E0E30400A0E17040BDE894
:104230001EFF2FE1034080E20340C4E3040050E18D
:10424000F8FFFF0A001044E00500A0E13F0400EB86
:10425000010070E3F3FFFF1AF1FFFFEA4C48002072
:10426000F0472DE9035081E20350C5E3085085E291
:104270000C0055E30C50A033050051E10010A09351
:104280000110A083A51F91E10C30A0130060A0E1F4
:10429000003080155400001A58719FE5EF0000EBC4
:1042A000003097E50340A0E1000054E30900001A44
:1042B0000510A0E10600A0E1CBFFFFEB0040A0E16C
:1042C000010070E3004097050480A0012100000A6E
:1042D000005084E50C0000EA002094E5052052E03F
:1042E0001700004A0B0052E31000009A051084E00A
:1042F000040053E1005084E504108315043094E574
:1043000000108705052084E7043081E50600A0E160
:10431000D80000EB0B0084E2043084E20700C0E325
:10432000032050E000304310023084172F0000EAD1
:10433000042094E5040053E1002087050420831540
:10434000F1FFFFEA0430A0E1044094E5D5FFFFEA65
:104350000840A0E1048098E5000058E3FBFFFF1A45
:10436000000054E31C00000A0810A0E10600A0E1D0
:10437000009094E5F50300EB099084E0000059E11A
:104380001500001A001094E5015045E00510A0E169
:104390000600A0E194FFFFEB010070E30E00000AAD
:1043A000003094E5053083E0003084E5003097E587
:1043B000042093E5000052E300808705D2FFFF0A46
:1043C0000320A0E1043093E5040053E1FBFFFF1A52
:1043D0000030A0E3043082E5CBFFFFEA0C30A0E31D
:1043E0000600A0E1003086E5A20000EB0000A0E39B
:1043F000F047BDE81EFF2FE150480020FC20D1E12E
:10440000080012E3F0412DE90050A0E10140A0E1D5
:104410005400001A043091E5000053E3020000CA82
:10442000403091E5000053E34C0000DA2C7094E535
:10443000000057E34900000A0030A0E3012A12E21D
:10444000006095E554209415003085E51400001AAD
:104450000130A0E30500A0E1201094E50FE0A0E109
:1044600017FF2FE1010070E30020A0E10C00001A0B
:10447000003095E5000053E30900000A160053E3FD
:104480001D005313006085053400000AFC30D4E1A0
:104490000000E0E3403083E3BC30C4E1F041BDE81C
:1044A0001EFF2FE1BC30D4E1040013E30500000A35
:1044B000043094E5032042E0343094E5000053E3F7
:1044C00040309415032042100030A0E30500A0E125
:1044D0002C7094E5201094E50FE0A0E117FF2FE188
:1044E000010070E3FC30D4E10600001A001095E5ED
:1044F0001D0051E3E5FFFF8AC8209FE53221A0E1BE
:10450000010012E3E1FFFF0A0020A0E3042084E59C
:10451000102094E5010A13E3002084E50500000A59
:10452000010070E30200001A003095E5000053E33B
:104530000000001A540084E5341094E5000051E3B3
:10454000006085E50500000A443084E2030051E183
:104550000500A011C403001B0030A0E3343084E543
:104560000000A0E3CCFFFFEA107091E5000057E3E4
:10457000FAFFFF0A030012E30030A0131430910584
:10458000006091E5083081E5007081E5076046E054
:10459000000056E3F1FFFFDA0630A0E10720A0E1BA
:1045A0000500A0E1288094E5201094E50FE0A0E14B
:1045B00018FF2FE1000050E3B3FFFFDA007087E03F
:1045C000006046E0F1FFFFEA01004020103091E575
:1045D000000053E370402DE90300001A0050A0E3EF
:1045E0000500A0E17040BDE81EFF2FE1000050E390
:1045F0000050A0E10140A0E10200000A203090E557
:10460000000053E343F9FF0BFC30D4E1000053E317
:10461000F1FFFF0A642094E5010012E30200001A92
:10462000020C13E3580094058FF9FF0B0500A0E17D
:104630000410A0E170FFFFEB643094E5010013E388
:104640000050A0E1E5FFFF1ABC30D4E1020C13E3F7
:10465000E2FFFF1A580094E584F9FFEBDFFFFFEA61
:1046600010402DE908009FE57FF9FFEB1040BDE801
:104670001EFF2FE14848002010402DE908009FE56B
:104680007AF9FFEB1040BDE81EFF2FE148480020FB
:1046900070402DE91C4090E5000054E30050A0E17B
:1046A0000160A0E10F00001A1000A0E3C6FEFFEBBE
:1046B000000050E30040A0E11C0085E50400001A62
:1046C0000020A0E16B10A0E3A0309FE5A0009FE5D3
:1046D0007EF9FFEB0030A0E3043080E5083080E590
:1046E000003080E50C3080E50C3094E5000053E3A9
:1046F0000B00001A2120A0E30410A0E30500A0E1B4
:10470000460300EB1C3095E50C0084E50C3093E586
:10471000000053E30200001A0000A0E37040BDE86F
:104720001EFF2FE1060193E7000050E300209015E3
:10473000062183170900001A0110A0E31146A0E129
:10474000052084E20500A0E10221A0E1330300EB93
:10475000000050E3EFFFFF0A046080E5084080E5B9
:104760000030A0E3103080E50C3080E5EAFFFFEA7E
:104770007C6000080561000870402DE91C6090E530
:10478000000056E30050A0E10140A0E10D00001A36
:104790001000A0E38CFEFFEB000050E30020A0E13E
:1047A0001C0085E50300001A8F10A0E33C309FE554
:1047B0003C009FE545F9FFEB046080E5086080E57B
:1047C000006080E50C6080E5000054E30500000A0D
:1047D0001C3095E5042094E50C3093E5021193E735
:1047E000001084E5024183E77040BDE81EFF2FE121
:1047F0007C60000805610008F0412DE90070A0E12F
:104800000140A0E10360A0E10000A0E3105091E5A9
:10481000B8E09FE514C081E200309CE50E1003E093
:10482000926121E02368A0E12138A0E1923623E0E3
:104830000E1001E0010080E2031881E0000055E164
:1048400004108CE42368A0E1F2FFFFCA000056E3E5
:104850001B00000A083094E5050053E1140000CA6B
:10486000041094E50700A0E1011081E287FFFFEB4F
:10487000008050E20400001A0820A0E1BA10A0E372
:104880004C309FE54C009FE510F9FFEB102094E5BC
:10489000022082E20C1084E20221A0E10C0088E2F6
:1048A00003F9FFEB0410A0E10700A0E1B1FFFFEB6B
:1048B0000840A0E1053184E0015085E2146083E501
:1048C000105084E50400A0E1F041BDE81EFF2FE197
:1048D000FFFF0000F4600008056100080030A0E15F
:1048E000010850E30038A0311000A0330000A023DD
:1048F000010453E30334A031080080321F0273E344
:104900000332A09104008092070173E30331A09168
:1049100002008092000053E31EFF2FB1010113E358
:10492000010080122000A0031EFF2FE1003090E55F
:104930000020A0E1070013E20900000A010013E3D0
:104940001D00001A020013E3A330A0112331A001BF
:104950000100A013003082150200A0030030820580
:104960001EFF2FE10318A0E12118A0E1000051E390
:104970001000A0032338A001FF1003E2000051E360
:104980002334A001080080020F0013E32332A001AA
:1049900004008002030013E32331A001020080021F
:1049A000010013E30200001AA330B0E1010080E22D
:1049B0000300000A003082E51EFF2FE10000A0E3A3
:1049C0001EFF2FE12000A0E31EFF2FE110402DE984
:1049D0000140A0E10110A0E32CFFFFEB002050E21A
:1049E0000300001A1C309FE51C109FE51C009FE58A
:1049F000B6F8FFEB0130A0E3144082E5103082E509
:104A00001040BDE81EFF2FE1F460000845010000E2
:104A100005610008F04F2DE9107091E5108092E5D6
:104A2000080057E10150A0E10240A0E114D04DE29E
:104A3000040000BA0830A0E10140A0E10780A0E135
:104A40000250A0E10370A0E1083094E5041094E561
:104A5000076088E0060053E1011081B20BFFFFEB15
:104A6000000050E30400001A0020A0E180319FE51F
:104A700080119FE580019FE594F8FFEB14E080E250
:104A80000E30A0E10020A0E306B18EE00B0053E160
:104A90001A00003A143084E2141085E2072181E004
:104AA00000308DE5083183E008208DE5042043E0E7
:104AB000154084E2152042E2030054E10320C2E3E2
:104AC0000020A08334519FE504208DE508209DE55A
:104AD000010052E10C108DE50A00008A000056E347
:104AE000020000DA04303BE5000053E33E00000A18
:104AF000106080E514D08DE2F04FBDE81EFF2FE17D
:104B0000042083E4E0FFFFEA002091E505A012E025
:104B10001600000A0E90A0E10070A0E300809DE561
:104B2000042098E400C099E5054002E005C00CE0CF
:104B30009AC42CE0004099E52228A0E12448A0E195
:104B40009A4224E007C08CE02C4884E005C00CE0C9
:104B500004C88CE1080053E104C089E42478A0E192
:104B6000EEFFFF8A04209DE502208EE0047082E5BE
:104B70000C209DE5B270D2E1000057E3041081E201
:104B80001700000A00209EE50E90A0E10280A0E13F
:104B900000A0A0E300409DE500C094E505C00CE046
:104BA00097AC2CE0052002E028C88CE00C2882E1BC
:104BB000042089E404A094E4008099E52AA8A0E1F7
:104BC000052008E0972A22E0040053E12C2882E027
:104BD00022A8A0E1EFFFFF8A04C09DE50CC08EE093
:104BE00004208CE504E08EE2B7FFFFEA016046E2B4
:104BF000B9FFFFEAF46000086201000005610008E7
:104C0000FFFF0000F0472DE90270A0E1032012E24F
:104C10000080A0E10150A0010500000A08C19FE545
:104C2000012042E20030A0E302219CE7F1FEFFEB0D
:104C30000050A0E14771B0E13800000A1C4098E53F
:104C4000000054E30F00001A1000A0E35EFDFFEB2C
:104C5000000050E30040A0E11C0088E50400001AB9
:104C60000020A0E1C4309FE5C4109FE5C4009FE58B
:104C700016F8FFEB0030A0E3043080E5083080E553
:104C8000003080E50C3080E5086094E5000056E3D4
:104C90000600001A0800A0E19C109FE54AFFFFEB08
:104CA0000030A0E30060A0E1080084E5003080E56A
:104CB0000590A0E10040A0E3013007E2000053E3CB
:104CC000C770A0E10900000A0510A0E10620A0E1DC
:104CD0000800A0E14EFFFFEB0910A0E10050A0E1A9
:104CE0000800A0E1A3FEFFEB000057E30B00000A61
:104CF000000096E5000050E30500001A0620A0E140
:104D00000610A0E10800A0E141FFFFEB000086E5EE
:104D1000004080E50060A0E10590A0E1E5FFFFEA2A
:104D20000500A0E1F047BDE81EFF2FE1B4610008D7
:104D30007C600008B30100000561000871020000FA
:104D4000F84F2DE90140A0E10070A0E10250A0E180
:104D5000108094E5041091E5C28288E0083094E563
:104D6000C2A2A0E1019088E2090053E1080000BA64
:104D70000700A0E145FEFFEB006050E20700001ACB
:104D80000620A0E1E4309FE5E4109FE5E4009FE504
:104D9000CEF7FFEB011081E28330A0E1F1FFFFEAE3
:104DA0000030A0E30310A0E114C086E2102086E2E8
:104DB0000A0053E1240000BA102094E5CAAFCAE10A
:104DC0000AC18CE0143084E21F5015E20C10A0E1FF
:104DD000022183E01F00000A0000A0E320E065E25A
:104DE00001A0A0E100B093E51B0580E100008AE589
:104DF000040093E4030052E1041081E2300EA0E1CC
:104E0000F6FFFF8A043042E0151084E2010052E10F
:104E1000153043E20330C3E30030A033000050E319
:104E200003C08CE004008CE50000001A0890A0E1AB
:104E30000700A0E10410A0E1109086E54DFEFFEB15
:104E40000600A0E1F84FBDE81EFF2FE10410A2E527
:104E5000013083E2D5FFFFEA04C093E4030052E18E
:104E600000C081E5041081E2FAFFFF8AEEFFFFEA4D
:104E7000F4600008DE010000056100080030A0E1D8
:104E8000102091E5100090E5020050E01EFF2F1168
:104E900004E02DE5143083E2141081E202C183E0C6
:104EA000021181E004E03CE5042031E502005EE10E
:104EB0000200000A0000E0330100A023010000EA24
:104EC0000C0053E1F6FFFF3A04E09DE41EFF2FE1E2
:104ED000F74F2DE90160A0E10070A0E10210A0E110
:104EE0000600A0E10240A0E1E3FFFFEB005050E22A
:104EF0000B00001A0510A0E10700A0E1E3FDFFEBA5
:104F0000002050E20130A013145082151030821599
:104F10004B00001A70319FE570119FE570019FE50D
:104F20006AF7FFEB0630A0B10460A0B10700A0E172
:104F3000041096E50340A0B10150A0B30050A0A317
:104F4000D2FDFFEB002050E23C319F0544119F054C
:104F5000F1FFFF0A14C082E2149086E2103086E26C
:104F60000C5082E50CB0A0E1105096E50060A0E383
:104F700010E094E5147084E204308DE518A19FE5FB
:104F8000058189E00EE187E004109DE50430B1E57C
:104F900000308DE50A3003E004108DE50310A0E138
:104FA000040097E40A3000E0033041E0063083E07B
:104FB00000609DE52008A0E1260860E0430880E04D
:104FC0000A3003E0003883E107005EE104308BE43F
:104FD0004068A0E1EBFFFF8A04304EE0154084E218
:104FE00004005EE1153043E20330C3E30030A03338
:104FF00003008CE0033089E0044083E204E0A0E198
:1050000094709FE5040080E209C04CE008005EE176
:105010000C908EE00E00003A031088E2013083E22B
:10502000041041E0030058E10310C1E30010A03375
:10503000001081E0043031E5000053E31000000A65
:10504000105082E50200A0E10CD08DE2F04FBDE8E7
:105050001EFF2FE106B0A0E104109EE4076001E00E
:105060000B6086E021A8A0E10B1081E046A88AE051
:10507000071001E00A1881E1001089E54A68A0E103
:10508000E1FFFFEA015045E2E9FFFFEAF4600008B2
:10509000370200000561000845020000FFFF000024
:1050A00073432DE90110A0E30280A0E10390A0E189
:1050B00020609DE575FDFFEB004050E20400001A02
:1050C0000420A0E1E0309FE5E0109FE5E0009FE5CF
:1050D000FEF6FFEBDC309FE5FF24C9E30F26C2E3B9
:1050E000295A13E001268213000058E304208DE5BD
:1050F0001E00000A0D00A0E100808DE50AFEFFEB16
:10510000000050E304209D1500309DE52010601242
:10511000123183113220A01104208D151430841512
:105120001430840504309DE5000053E30120A00302
:105130000220A013183084E5000055E3102084E518
:105140001100000A433E45E2033043E2003083E0B1
:10515000003086E5350060E224309DE5000083E5FF
:105160000400A0E108D08DE27043BDE81EFF2FE1EE
:1051700004008DE2ECFDFFEB04309DE50120A0E38F
:10518000143084E5200080E2EAFFFFEA430E40E2AB
:10519000020040E2023184E0000086E5100093E561
:1051A000CDFDFFEB820260E0EAFFFFEAF460000859
:1051B0000F03000005610008FF07000010402DE903
:1051C0000140A0E1FE10D1E14F0000EB000050E3F0
:1051D000543094A5BC30D4B1003083A0013AC3B39D
:1051E000543084A5BC30C4B11040BDE81EFF2FE18F
:1051F000F0412DE90370A0E1BC30D1E1010C13E3D3
:105200000050A0E10140A0E10260A0E10300000A1B
:105210000230A0E30020A0E3FE10D1E1290000EB62
:10522000BC30D4E1013AC3E3BC30C4E10620A0E1C4
:105230000730A0E10500A0E1FE10D4E1520000EB30
:10524000F041BDE81EFF2FE110402DE90140A0E133
:10525000FE10D1E11B0000EBFC30D4E1010070E353
:10526000013AC303013A8313BC30C401BC30C411FA
:10527000540084151040BDE81EFF2FE110402DE9B9
:10528000FE10D1E1510000EB1040BDE81EFF2FE100
:105290000E002DE903402DE90010A0E120009FE55C
:1052A00010308DE20C209DE5000090E504308DE586
:1052B000DA0000EB08D08DE204E09DE40CD08DE232
:1052C0001EFF2FE11000002070402DE90040A0E1FA
:1052D0000100A0E10210A0E10020A0E324509FE51E
:1052E000002085E50320A0E1160300EB010070E338
:1052F0000200001A003095E5000053E300308415E9
:105300007040BDE81EFF2FE15448002070402DE999
:105310000040A0E10100A0E10210A0E10020A0E314
:1053200024509FE5002085E50320A0E10B0300EB5E
:10533000010070E30200001A003095E5000053E31D
:10534000003084157040BDE81EFF2FE15448002056
:105350000030A0E370402DE928509FE50040A0E117
:105360000100A0E1003085E5020300EB010070E3DD
:105370000200001A003095E5000053E30030841568
:105380007040BDE81EFF2FE15448002070402DE919
:105390000040A0E10100A0E10210A0E10020A0E394
:1053A00024509FE5002085E50320A0E1FC0200EBEE
:1053B000010070E30200001A003095E5000053E39D
:1053C000003084157040BDE81EFF2FE154480020D6
:1053D0000030A0E370402DE928509FE50040A0E197
:1053E0000100A0E1003085E5B80200EB010070E3A8
:1053F0000200001A003095E5000053E300308415E8
:105400007040BDE81EFF2FE1544800200600A0E3D5
:1054100010402DE9750200EB0100A0E3E60200EB6D
:1054200070402DE9916285E0000055E30600001A06
:105430000610A0E189FBFFEB004050E20600001AD5
:105440000400A0E17040BDE81EFF2FE10C30A0E396
:105450000040A0E3003080E5F8FFFFEA0620A0E16D
:105460000510A0E1D9F5FFEBF4FFFFEA000051E3DE
:105470001EFF2F01043011E570402DE9000053E3B9
:10548000044041E2034084B00050A0E173FCFFEB14
:10549000DC209FE5003092E5000053E30500001A90
:1054A000043084E5004082E50500A0E171FCFFEBDB
:1054B0007040BDE81EFF2FE1040053E10700009A91
:1054C000000094E5001084E0010053E10010930512
:1054D000001081000010840504309305EFFFFFEAFF
:1054E0000320A0E1043093E5001053E20110A01363
:1054F000040053E10010A083000051E3F7FFFF1AFE
:10550000001092E5010082E0040050E10B00001A57
:10551000000094E5001081E00200A0E1011080E6A7
:10552000000053E1DFFFFF1A000093E5043093E52C
:10553000011080E0001082E5043082E5D9FFFFEA27
:105540000C30A08300308585D6FFFF8A000094E5EB
:10555000001084E0010053E100109305043093052E
:105560000010810000108405043084E5044082E5C9
:10557000CCFFFFEA5048002010402DE908E092E5FA
:1055800001E04EE200005EE30130A0E102C0A0E1D4
:1055900008E082E5070000AA184092E504005EE1F9
:1055A00000E0A0B301E0A0A30A0051E300E0A003E3
:1055B00000005EE30600000A00209CE5011082E284
:1055C00000108CE50030C2E50300A0E11040BDE80A
:1055D0001EFF2FE1070100EB0030A0E1F9FFFFEA19
:1055E000F0412DE90060A0E10170A0E10240A0E1DE
:1055F000035082E0050054E10000A0030500000A0A
:105600000720A0E10600A0E10110D4E4D9FFFFEBE0
:10561000010070E3F6FFFF1AF041BDE81EFF2FE125
:10562000F04F2DE9006050E20150A0E10240A0E1FE
:105630000380A0E17CD04DE20200000A203096E514
:10564000000053E333F5FF0B643095E5010013E3ED
:105650000300001ABC30D5E1020C13E35800950595
:1056600081F5FF0BBC30D5E1080013E30200000A0E
:10567000103095E5000053E31100001A0510A0E179
:105680000600A0E1180100EB000050E30C00000A46
:10569000643095E5010013E30300000A0000E0E335
:1056A0007CD08DE2F04FBDE81EFF2FE1BC30D5E18C
:1056B000020C13E3F8FFFF1A580095E56BF5FFEBBA
:1056C000F5FFFFEA0030A0E32C308DE52030A0E3A9
:1056D0003130CDE53030A0E301A0A0E33230CDE59C
:1056E00014808DE5B8929FE50430A0E10080D3E5F9
:1056F000000058E32500581303B0A0E10180A01377
:105700000080A003013083E2F7FFFF1A04305BE062
:105710000A00000A0420A0E10510A0E10600A0E1B3
:105720000C308DE5ADFFFFEB010070E38800000A4F
:105730002C209DE50C309DE5032082E02C208DE59A
:105740000030DBE5000053E38100000A0030A0E3F5
:105750000020E0E318308DE524308DE51C208DE538
:1057600020308DE55B30CDE570308DE501B08BE20A
:105770000B40A0E10520A0E30110D4E420029FE546
:105780003EF5FFEB000050E318309DE51400001AD1
:10579000100013E32020A0135B20CD15080013E3B5
:1057A0002B20A0135B20CD150020DBE52A0052E35F
:1057B0001000000A0000A0E30B40A0E10AC0A0E333
:1057C00024209DE50410A0E10130D1E4303043E213
:1057D000090053E32100009A000050E30B00001A77
:1057E000100000EA090040E01A0083E104B0A0E1E3
:1057F00018008DE5DDFFFFEA14209DE5041082E22C
:10580000002092E5000052E314108DE5010000BA7B
:1058100024208DE5030000EA002062E2023083E3E9
:1058200024208DE518308DE50030D4E52E0053E3BB
:105830001900001A0130D4E52A0053E30B00001AC6
:1058400014309DE5042083E2003093E514208DE5BB
:10585000024084E2C33F83E11C308DE50E0000EA84
:105860000140A0E10100A0E39C3222E0D4FFFFEA66
:105870000030A0E30A00A0E31C308DE5014084E283
:105880000410A0E10120D1E4302042E2090052E3FB
:105890002100009A000058E3EEFFFF1A04819FE503
:1058A0000320A0E30800A0E10010D4E5F3F4FFEB2F
:1058B000000050E30500000A4020A0E318309DE5F9
:1058C000080040E0123083E118308DE5014084E2A9
:1058D0000110D4E40620A0E3CC009FE53010CDE514
:1058E000E6F4FFEB000050E32500000ABC309FE522
:1058F000000053E30C00001A14309DE5073083E2EA
:105900000730C3E3083083E214308DE52C309DE589
:10591000073083E02C308DE572FFFFEA0140A0E103
:105920000180A0E3902323E0D4FFFFEA14308DE24E
:1059300000308DE50520A0E10600A0E170309FE574
:1059400018108DE204F1FFEB010070E30070A0E19C
:10595000EDFFFF1A643095E5010013E30300001A20
:10596000BC30D5E1020C13E358009505BFF4FF0BE2
:10597000BC30D5E1400013E347FFFF1A2C009DE542
:1059800046FFFFEA14308DE200308DE50520A0E1EE
:105990000600A0E118309FE518108DE21DF3FFEB23
:1059A000E8FFFFEA71610008776100087B61000889
:1059B0005C1D0008E0550008000051E308D04DE2EE
:1059C00004108D02000052E30200A0010700000A4B
:1059D000000053E30100E0030400000A0030D2E5B8
:1059E000003081E50020D2E5000052E20100A01362
:1059F00008D08DE21EFF2FE1F0412DE9005050E26A
:105A00000160A0E10240A0E10200000A203095E51B
:105A1000000053E33FF4FF0B183094E5083084E5B1
:105A2000BC30D4E1080013E30200000A103094E512
:105A3000000053E30800001A0410A0E10500A0E1F3
:105A4000290000EB000050E30300000A0070E0E3CF
:105A50000700A0E1F041BDE81EFF2FE1103094E502
:105A6000000094E5030040E0143094E5FF6006E296
:105A7000000053E10670A0E1040000CA0410A0E198
:105A80000500A0E1D0FAFFEB000050E3EEFFFF1AA3
:105A9000083094E5013043E2083084E5003094E5B5
:105AA000012083E2002084E50060C3E5143094E522
:105AB000010080E2000053E10500000ABC30D4E19F
:105AC0000A0056E30030A01301300302000053E344
:105AD000DEFFFF0A0410A0E10500A0E1BAFAFFEB27
