:020000040800F2
:1000000000500020FD0E0008F9100008FB10000849
:10001000FD100008FF10000801110008000000009A
:1000200000000000000000000000000003110008B4
:100030000511000800000000071100080911000860
:10004000450F0008450F0008450F0008450F000840
:10005000450F0008450F0008450F0008450F000830
:10006000450F0008450F0008450F0008450F000820
:10007000450F0008450F0008450F0008450F000810
:10008000450F0008450F0008450F0008450F000800
:10009000450F0008450F0008450F0008450F0008F0
:1000A000450F0008450F0008450F0008450F0008E0
:1000B000450F0008450F0008450F0008450F0008D0
:1000C000450F0008450F0008450F0008450F0008C0
:1000D000450F0008450F0008450F0008450F0008B0
:1000E000450F0008450F0008450F000800000000FC
:1000F0000000000000000000000000000000000000
:0C01000000000000000000005FF808F1A3
:10011000034613F8012B002AFBD1181A0138704747
:1001200081F0004102E000BF83F0004330B54FEAA8
:1001300041044FEA430594EA050F08BF90EA020F15
:100140001FBF54EA000C55EA020C7FEA645C7FEAA8
:10015000655C00F0E2804FEA5454D4EB5555B8BFCB
:100160006D420CDD2C4480EA020281EA030382EA3C
:10017000000083EA010180EA020281EA0303362DCE
:1001800088BF30BD11F0004F4FEA01314FF4801CA1
:100190004CEA113102D0404261EB410113F0004FB3
:1001A0004FEA03334CEA133302D0524263EB43036A
:1001B00094EA050F00F0A780A4F10104D5F1200E08
:1001C0000DDB02FA0EFC22FA05F2801841F1000163
:1001D00003FA0EF2801843FA05F359410EE0A5F137
:1001E00020050EF1200E012A03FA0EFC28BF4CF068
:1001F000020C43FA05F3C01851EBE37101F000451E
:1002000007D54FF0000EDCF1000C7EEB00006EEB2A
:100210000101B1F5801F1BD3B1F5001F0CD34908B4
:100220005FEA30004FEA3C0C04F101044FEA44520B
:1002300012F5800F80F09A80BCF1004F08BF5FEA92
:10024000500C50F1000041EB045141EA050130BD72
:100250005FEA4C0C404141EB0101013C28BFB1F584
:10026000801FE9D291F0000F04BF01460020B1FACF
:1002700081F308BF2033A3F10B03B3F120020CDAA2
:100280000C3208DD02F1140CC2F10C0201FA0CF080
:1002900021FA02F10CE002F11402D8BFC2F1200CE5
:1002A00001FA02F120FA0CFCDCBF41EA0C0190409B
:1002B000E41AA2BF01EB0451294330BD6FEA0404E4
:1002C0001F3C1CDA0C340EDC04F11404C4F12002CF
:1002D00020FA04F001FA02F340EA030021FA04F3E1
:1002E00045EA030130BDC4F10C04C4F1200220FA38
:1002F00002F001FA04F340EA0300294630BD21FA76
:1003000004F0294630BD94F0000F83F4801306BF3B
:1003100081F480110134013D4EE77FEA645C18BF2F
:100320007FEA655C29D094EA050F08BF90EA020FC6
:1003300005D054EA000C04BF1946104630BD91EABE
:10034000030F1EBF0021002030BD5FEA545C05D1C1
:100350004000494128BF41F0004130BD14F5800400
:100360003CBF01F5801130BD01F0004545F0FE4174
:1003700041F470014FF0000030BD7FEA645C1ABFA9
:10038000194610467FEA655C1CBF0B46024650EAE0
:10039000013406BF52EA033591EA030F41F400210C
:1003A00030BD00BF90F0000F04BF0021704730B592
:1003B0004FF4806404F132044FF000054FF0000167
:1003C00050E700BF90F0000F04BF0021704730B528
:1003D0004FF4806404F1320410F0004548BF4042FD
:1003E0004FF000013EE700BF42004FEAE2014FEA52
:1003F00031014FEA02701FBF12F07F4393F07F4F2D
:1004000081F06051704732F07F4208BF704793F02F
:100410007F4F04BF41F40021704730B54FF4607442
:1004200001F0004521F000411CE700BF50EA010245
:1004300008BF704730B54FF000050AE050EA0102EE
:1004400008BF704730B511F0004502D5404261EB5E
:1004500041014FF4806404F132045FEA915C3FF49F
:10046000D8AE4FF003025FEADC0C18BF03325FEA3C
:10047000DC0C18BF033202EBDC02C2F1200300FAED
:1004800003FC20FA02F001FA03FE40EA0E0021FA12
:1004900002F11444BDE600BF70B54FF0FF0C4CF400
:1004A000E06C1CEA11541DBF1CEA135594EA0C0FB2
:1004B00095EA0C0F00F0DEF82C4481EA030621EAED
:1004C0004C5123EA4C5350EA013518BF52EA033528
:1004D00041F4801143F4801338D0A0FB02CE4FF0DA
:1004E0000005E1FB02E506F00042E0FB03E54FF00A
:1004F0000006E1FB03569CF0000F18BF4EF0010E02
:10050000A4F1FF04B6F5007F64F5407404D25FEAFD
:100510004E0E6D4146EB060642EAC62141EA5551B0
:100520004FEAC52040EA5E504FEACE2EB4F1FD0CF2
:1005300088BFBCF5E06F1ED8BEF1004F08BF5FEA70
:10054000500E50F1000041EB045170BD06F0004622
:1005500046EA010140EA020081EA0301B4EB5C04CF
:10056000C2BFD4EB0C0541EA045170BD41F48011C7
:100570004FF0000E013C00F3AB8014F1360FDEBFEC
:10058000002001F0004170BDC4F10004203C35DAC8
:100590000C341BDC04F11404C4F1200500FA05F34B
:1005A00020FA04F001FA05F240EA020001F00042EC
:1005B00021F0004110EBD37021FA04F642EB060162
:1005C0005EEA430E08BF20EAD37070BDC4F10C048C
:1005D000C4F1200500FA04F320FA05F001FA04F250
:1005E00040EA020001F0004110EBD37041F100013C
:1005F0005EEA430E08BF20EAD37070BDC4F1200547
:1006000000FA05F24EEA020E20FA04F301FA05F2AE
:1006100043EA020321FA04F001F0004121FA04F256
:1006200020EA020000EBD3705EEA430E08BF20EA26
:10063000D37070BD94F0000F0FD101F00046400060
:1006400041EB010111F4801F08BF013CF7D041EAE2
:10065000060195F0000F18BF704703F000465200E6
:1006600043EB030313F4801F08BF013DF7D043EAB7
:100670000603704794EA0C0F0CEA135518BF95EA6D
:100680000C0F0CD050EA410618BF52EA4306D1D1F4
:1006900081EA030101F000414FF0000070BD50EA13
:1006A000410606BF1046194652EA430619D094EA9D
:1006B0000C0F02D150EA013613D195EA0C0F05D187
:1006C00052EA03361CBF104619460AD181EA0301DB
:1006D00001F0004141F0FE4141F470014FF0000093
:1006E00070BD41F0FE4141F4780170BD70B54FF02E
:1006F000FF0C4CF4E06C1CEA11541DBF1CEA1355AE
:1007000094EA0C0F95EA0C0F00F0A7F8A4EB05048F
:1007100081EA030E52EA03354FEA013100F0888086
:100720004FEA03334FF0805545EA131343EA12634F
:100730004FEA022245EA111545EA10654FEA002604
:100740000EF000419D4208BF964244F1FD0404F5BD
:10075000407402D25B084FEA3202B61A65EB030519
:100760005B084FEA32024FF480104FF4002CB6EBD6
:10077000020E75EB030E22BFB61A754640EA0C0056
:100780005B084FEA3202B6EB020E75EB030E22BF96
:10079000B61A754640EA5C005B084FEA3202B6EBD7
:1007A000020E75EB030E22BFB61A754640EA9C0096
:1007B0005B084FEA3202B6EB020E75EB030E22BF66
:1007C000B61A754640EADC0055EA060E18D04FEA24
:1007D000051545EA16754FEA06164FEAC30343EAC4
:1007E00052734FEAC2025FEA1C1CC0D111F4801F91
:1007F0000BD141EA00014FF000004FF0004CB6E78A
:1008000011F4801F04BF01430020B4F1FD0C88BF28
:10081000BCF5E06F3FF6AFAEB5EB030C04BFB6EB33
:10082000020C5FEA500C50F1000041EB045170BD26
:100830000EF0004E4EEA113114EB5C04C2BFD4EB53
:100840000C0541EA045170BD41F480114FF0000ED7
:10085000013C90E645EA060E8DE60CEA135594EA53
:100860000C0F08BF95EA0C0F3FF43BAF94EA0C0F56
:100870000AD150EA01347FF434AF95EA0C0F7FF4CB
:1008800025AF104619462CE795EA0C0F06D152EA1F
:1008900003353FF4FDAE1046194622E750EA410603
:1008A00018BF52EA43067FF4C5AE50EA41047FF414
:1008B0000DAF52EA43057FF4EBAE12E74FF0FF3C79
:1008C00006E000BF4FF0010C02E000BF4FF0010C4A
:1008D0004DF804CD4FEA410C7FEA6C5C4FEA430CC3
:1008E00018BF7FEA6C5C1BD001B050EA410C0CBF12
:1008F00052EA430C91EA030F02BF90EA020F002074
:10090000704710F1000F91EA030F58BF994208BFDA
:1009100090422CBFD8176FEAE37040F00100704797
:100920004FEA410C7FEA6C5C02D150EA013C07D1EE
:100930004FEA430C7FEA6C5CD6D152EA033CD3D039
:100940005DF8040B704700BF8446104662468C4633
:100950001946634600E000BF01B5FFF7B7FF002866
:1009600048BF10F1000F01BD4DF808EDFFF7F4FF8F
:100970000CBF012000205DF808FB00BF4DF808ED1A
:10098000FFF7EAFF34BF012000205DF808FB00BF3D
:100990004DF808EDFFF7E0FF94BF012000205DF85F
:1009A00008FB00BF4DF808EDFFF7CEFF94BF012014
:1009B00000205DF808FB00BF4DF808EDFFF7C4FF0D
:1009C00034BF012000205DF808FB00BF4FEA410C56
:1009D0007FEA6C5C02D150EA013C0AD14FEA430C39
:1009E0007FEA6C5C02D152EA033C02D14FF0000076
:1009F00070474FF0010070474FEA410212F50012B4
:100A000015D211D56FF47873B3EB625212D94FEA55
:100A1000C12343F0004343EA505311F0004F23FA3F
:100A200002F018BF404270474FF00000704750EA94
:100A3000013005D111F0004008BF6FF00040704751
:100A40004FF00000704700BF0348044B834202D0C0
:100A5000034B03B118477047CC010020CC010020A4
:100A6000000000000548064B1B1AD90F01EBA3013B
:100A7000491002D0034B03B118477047CC01002046
:100A8000CC0100200000000010B5064C237843B9CB
:100A9000FFF7DAFF044B13B10448AFF300800123E2
:100AA000237010BDCC01002000000000F03A0008C7
:100AB00008B5054B1BB105490548AFF30080BDE8FB
:100AC0000840FFF7CFBF00BF00000000D0010020AA
:100AD000F03A0008F0B583B00121082000F000FAD8
:100AE00014238DF8073003238DF806304FF48076F9
:100AF000ADF8046001AF0C4C3946204600F093F984
:100B00004FF40075ADF804503946204600F08BF9DB
:100B100001223146204600F0DEF901222946204616
:100B200000F0D9F903B0F0BD000C014010B50D4C38
:100B300001224FF40071204600F0CDF901224FF45C
:100B40008071204600F0C7F900224FF40071204662
:100B500000F0C1F900224FF48071204600F0BBF98B
:100B600010BD00BF000C014010B50A4C00224FF42C
:100B70000071204600F0AFF901224FF48071204649
:100B800000F0A9F901224FF40071204600F0A3F90A
:100B900010BD00BF000C014070B50646002419E0EE
:100BA000802222413240134D003A18BF01224FF4F7
:100BB0000071284600F08FF901224FF48071284619
:100BC00000F089F900224FF48071284600F083F983
:100BD0000134E4B2072CE3D9064C01224FF48071B2
:100BE000204600F078F900224FF48071204600F092
:100BF00072F970BD000C014010B50446FFF796FF76
:100C00007820FFF7C9FF0020FFF7C6FF2046FFF757
:100C1000C3FFFFF7A9FF10BD10B50446FFF786FF1D
:100C20007820FFF7B9FF4020FFF7B6FF2046FFF717
:100C3000B3FFFFF799FF10BD10B50C4640F0B000B0
:100C4000FFF7DAFF200940F01000FFF7D5FF04F0AE
:100C50000F00FFF7D1FF10BD38B5002501E00135C9
:100C6000EDB2072D0DD800212846FFF7E5FF00243F
:100C700014F0800FF3D10020FFF7CEFF0134E4B26F
:100C8000F6E738BDF8B5064615464F1EFF00FFB221
:100C900001384000394600F0FE00FFF7CDFF002488
:100CA00009E0A5F12002114B03EB0213185DFFF7D9
:100CB000B3FF0134E4B2072CF3D97000C0B201389D
:100CC0003946C0B2FFF7B8FF00240BE0A5F12001C0
:100CD00004F10802054B03EB0113985CFFF79CFF3E
:100CE0000134E4B2072CF1D9F8BD00BF083B00087D
:100CF000F8B507460E461546002406E0A119C9B20C
:100D00003846FFF7BFFF0134E4B22A5D002AF5D16F
:100D1000F8BD0246012002E002FB00F019464B1E1E
:100D20000029F9D1704700002DE9F8438146884633
:100D300017461E46002419E004EB0805EDB2311BEE
:100D400001390A20FFF7E5FFB7FBF0F0094AA2FBE3
:100D50000032D20802EB8202A0EB42023032D2B261
:100D600029464846FFF78EFF0134E4B2B442E3D38C
:100D7000BDE8F883CDCCCCCC08B5002204E001332B
:100D8000B3F57A7FFBD30132B2F57A7F01D200232B
:100D9000F6E7FFF79FFEAE20FFF72EFFD520FFF707
:100DA0002BFF8020FFF728FFA820FFF725FF3F201B
:100DB000FFF722FFD320FFF71FFF0020FFF71CFFE4
:100DC0004020FFF719FFA120FFF716FFC820FFF70B
:100DD00013FFDA20FFF710FF1220FFF70DFF81202D
:100DE000FFF70AFFCF20FFF707FFD920FFF704FF27
:100DF000F120FFF701FFDB20FFF7FEFE3020FFF7B9
:100E0000FBFEA420FFF7F8FEA620FFF7F5FE8D20DD
:100E1000FFF7F2FE1420FFF7EFFEAF20FFF7ECFE26
:100E2000FFF71AFF08BD30B5CB7803F00F029646E6
:100E300013F0100F03D091F802E04EEA020E0B7887
:100E4000FBB10568002301E042610133072B17D88D
:100E500001229A40B1F800C032EA0C0CF5D19C0096
:100E60004FF00F0C0CFA04FC25EA0C050EFA04F402
:100E70002543CC78282CE7D0482CE6D10261E4E762
:100E800005600B88FF2B25D94568002303E0CC784B
:100E9000482C1CD00133072B1BD803F1080C01226E
:100EA00002FA0CF2B1F800C032EA0C0CF2D19C004C
:100EB0004FF00F0C0CFA04FC25EA0C0C0EFA04F4AB
:100EC00044EA0C05CC78282CE1D14261DFE70261CD
:100ED000E0E7456030BD0AB101617047416170478C
:100EE00021B1054A9369034393617047024A9369AC
:100EF00023EA0003936170470010024000F08AF873
:100F00000B480C490C4A002302E0D458C450043367
:100F1000C4188C42F9D3094A094C002301E013603C
:100F20000432A242FBD300F019FE00F0BBF8704778
:100F300000000020CC010020A4440008CC010020C7
:100F400038030020FEE7000082B0002301930093E5
:100F50002C4A136843F4803313602A4B1B6803F454
:100F600000330093019B01330193009B1BB9019B4C
:100F7000B3F5A06FF1D1234B1B6813F4003F06D0EB
:100F800001230093009B012B04D002B07047002383
:100F90000093F7E71C4B1A6842F010021A601A68B7
:100FA00022F003021A601A6842F002021A60A3F5E6
:100FB00080535A685A605A685A605A6842F480628C
:100FC0005A605A6822F47C125A605A6842F4E81255
:100FD0005A601A6842F080721A600A4B1B6813F05C
:100FE000007FFAD0074B5A6822F003025A605A6811
:100FF00042F002025A60034B5B6803F00C03082BBB
:10100000F9D1C2E7001002400020024008B5FFF706
:101010009BFF08BD08B5104B1A6842F001021A6028
:1010200059680E4A0A405A601A6822F0847222F403
:1010300080321A601A6822F480221A605A6822F4F8
:10104000FE025A604FF41F029A60FFF7DFFF044B65
:101050004FF000629A6008BD001002400000FFF8E7
:1010600000ED00E000EBC000C0004FF0E02358614D
:1010700000229A6105221A614FF0E0231B6913F4E4
:10108000803FF9D04FF0E02304221A61704710B579
:1010900004E04FF47A70FFF7E5FF2046441E002875
:1010A000F7D110BD08B5FFF767FE0F4A01210846CA
:1010B000FFF71EFE08230D4A126819460120FFF7AC
:1010C00033FE0B4A01210220FFF712FE4FF4FA70A3
:1010D000FFF7DDFF074A01210220FFF709FE4FF469
:1010E000FA70FFF7D4FFECE7F8400008000000209A
:1010F00000410008084100087047FEE7FEE7FEE7F0
:10110000FEE77047704770477047002B2DE9F047A6
:101110001D46BBBF03F100431D4600232D2388B0AD
:101120001446B8BF1446129A109E1370149BDDF833
:101130004CA023F02008B8F1460F05D0B8F1450FB8
:1011400000D10136022300E0032307AA049206AA75
:10115000CDE902A2CDE9003622462B4600F0E0FDA3
:10116000B8F1470F074619D1119BDB070ED500EBED
:1011700006090022002320462946FFF7F5FB08B1A7
:10118000CDF81C903022079B4B451ED33846079B59
:10119000159ADB1B136008B0BDE8F087B8F1460F65
:1011A00000EB0609E5D10378302B0AD10022002399
:1011B00020462946FFF7D8FB18B9C6F10106CAF840
:1011C0000060DAF800309944D3E7591C07911A708F
:1011D000D9E7F7B50029B6BF2D232B2349420929AA
:1011E0000270437029DD0DF1070425460A27B1FB83
:1011F000F7F6224607FB1613303302F8013C0B4684
:10120000632B314604F1FF34F1DC3031931E04F8D6
:10121000011C1C46411CAB420AD30DF109039B1A69
:10122000A54238BF0023821C1344181A03B0F0BD36
:1012300013F8016B01F8016FEDE730233031837053
:10124000C170031DF1E700002DE9F04F91B00C468D
:10125000DDF8688016461F46054600F0A7FC0368C7
:1012600018460A93FEF754FF00230E93D8F8003077
:1012700094F818A0073323F00703F3E80212D4F818
:1012800000B0CDE90812C8F8003013460A46C4E998
:101290001223DDE9088323F000490B904FF0FF3261
:1012A000404649469B4BFFF791FB70BB4FF0FF3226
:1012B00040464946974BFFF76BFB30BBDDE9080121
:1012C00000220023FFF75AFB10B12D2384F843308E
:1012D000914A924BBAF1470F8CBF90469846032330
:1012E0004FF0000923612BF00403236033462146AD
:1012F000284600970FAA00F0D3F9013040F08F8004
:101300004FF0FF3011B0BDE8F08FDDE90823104643
:101310001946FFF75BFB40B1099B814A002BBCBF1C
:101320002D2384F843307F4BD4E763680AF0DF094C
:101330005A1C3ED10623636000224BF48063236075
:1013400006920EAACDE904A20DAA03920DF1330272
:10135000CDE90132636828460093DDE90823FFF7F1
:10136000D4FEB9F1470F80460D9929D1C81C02DB84
:1013700063688B4241DAAAF1020A5FFA8AFA52469E
:10138000013904F150000D91FFF723FF0E9A8146B9
:101390001318012A236102DC2268D20701D5013328
:1013A00023619DF83330002BA0D02D2384F84330E7
:1013B0009CE7B9F1470FBFD1002BBDD10123BAE79C
:1013C000BAF1650FDBD9BAF1660F18D1002963684D
:1013D0000BDD216113B92268D00702D501330B441C
:1013E00023614FF00009A165DBE713B92268D2073A
:1013F00001D50233F4E70123F2E74FF0670A0E9BB1
:101400008B4205DC23682161D807EAD54B1CE7E74E
:101410000029CCBF0122C1F102021344E0E7236896
:101420005A0507D42369424631462846B847013059
:101430002BD165E7BAF1650F40F2DC80D4E91201E7
:1014400000220023FFF790FA002833D00123314611
:101450002846354AB84701303FF452AFDDE90D3830
:10146000434502DB2368D8070FD5DDE90A2331465F
:101470002846B84701303FF443AF4FF0000908F168
:10148000FF3804F11A0AC84509DC23689B0700F1FC
:101490000281E0680F9B9842B8BF184632E70123EB
:1014A000524631462846B84701303FF429AF09F18A
:1014B0000109E8E70D9B002B38DC01233146284663
:1014C000194AB84701303FF41BAFDDE90D3959EA3D
:1014D000030302D12368D907D7D5DDE90A233146B2
:1014E0002846B84701303FF40BAF4FF0000A04F133
:1014F0001A0B0D9B5B42534501DC4B4693E70123DE
:101500005A4631462846B84701303FF4F9AE0AF151
:10151000010AEEE7FFFFEF7F1441000810410008C9
:101520001C4100081841000820410008A36DDDF8A7
:1015300038A05345A8BF5346002B994636DC4FF0E0
:10154000000B29EAE97904F11A02A36D0893A3EBD1
:1015500009035B4531DC0D9B9A453ADC2368DA07C9
:1015600037D40D9BAAEB0309089BAAEB030399450B
:10157000A8BF9946B9F1000F33DC4FF0000829EA03
:10158000E97904F11A0B0D9BAAEB0303A3EB090302
:1015900043457FF77AAF01235A4631462846B8477C
:1015A00001303FF4ADAE08F10108ECE742463146A8
:1015B0002846B8470130C2D1A2E601233146284669
:1015C0000892B84701303FF49BAE089A0BF1010B2B
:1015D000BBE73146DDE90A232846B8470130C0D1D0
:1015E0008EE6089A4B46314628464244B8470130B9
:1015F000C3D185E6DDF838A0BAF1010F01DCDB07C5
:1016000036D50123424631462846B84701303FF4DB
:1016100077AEDDE90A2331462846B84701303FF46A
:101620006FAED4E91201002200230AF1FF3AFFF75E
:101630009BF9C0B9534608F1010231462846B84724
:1016400001300CD15CE601235A4631462846B847A2
:1016500001303FF455AE08F10108D045F3DB4B46AD
:1016600004F15002E0E64FF0000804F11A0BF4E731
:1016700001234246E1E701234A4631462846B8475E
:1016800001303FF43DAE08F10108E3680F995B1AA1
:101690004345F0DCFDE64FF0000804F11909F4E7DA
:1016A0002DE9F047164698468A680B69074693422B
:1016B000B8BF1346336091F843200C46DDF8209004
:1016C0000AB1013333602368990642BF336802339D
:1016D0003360256815F0060506D104F1190AE368A0
:1016E00032689B1AAB422BDC94F843302268003BF3
:1016F00018BF0123920630D44146384604F1430214
:10170000C847013023D02368226903F00603042B65
:1017100014BF002533684FF0000608BFE56804F1E8
:101720001A0408BFED1A54F8123C08BF25EAE57503
:101730009342C4BF9B1AED18B5421AD1002008E0AD
:101740000123524641463846C847013003D14FF085
:10175000FF30BDE8F0870135C1E73020E11881F89E
:1017600043005A1C94F845102244023382F8431077
:10177000C2E70123224641463846C8470130E6D039
:101780000136D9E72DE9FF470F7E9146782F804635
:101790000C469A460C9E01F1430207D8622F0AD8E4
:1017A000002F00F0D280582F00F0B78004F14206DD
:1017B00084F842703AE0A7F16303152BF6D801A133
:1017C00051F823F01D18000831180008AD17000863
:1017D000AD170008AD170008AD1700083118000854
:1017E000AD170008AD170008AD170008AD170008C9
:1017F000311900085B180008E7180008AD17000849
:10180000AD17000853190008AD1700085B18000851
:10181000AD170008AD170008EF18000833681A1D4F
:101820001B68326004F1420684F8423001239DE0D7
:1018300033682068191D3160060601D51D6803E074
:101840004506FBD5B3F90050002D03DA2D236D4278
:1018500084F843300A23594810E0216833680806A9
:1018600053F8045B02D4490648BFADB26F2F53480A
:10187000336059D10823002184F843106668002E94
:10188000A66005DB21682E4321F0040121604DD0C4
:101890001646B5FBF3F103FB1157C75D06F8017D52
:1018A0002F46BB420D46F4D9082B0BD12368DF0726
:1018B00008D5236961689942DEBF302306F8013CF0
:1018C00006F1FF36921B22614B4621464046CDF879
:1018D00000A003AAFFF7E4FE01304CD14FF0FF3027
:1018E00004B0BDE8F087236843F020032360782725
:1018F000334884F84570236831681F0651F8045B4B
:1019000002D45F0648BFADB23160D90744BF43F08F
:10191000200323601DB11023ADE72848E9E72368C1
:1019200023F020032360F6E70A23A4E71646BBE76B
:1019300033682568181D616930602E061B6801D563
:10194000196002E06806FBD5198000231646236162
:10195000BAE7336800211A1D32601E68626830469B
:1019600000F028F908B1801B6060636823610023E0
:1019700084F84330A8E73246494640462369D047B9
:101980000130ABD023689B0713D4E068039B9842D7
:10199000B8BF1846A4E70123324649464046D0471F
:1019A00001309BD00135E36803995B1AAB42F2DC4E
:1019B000EBE7002504F11906F5E700BF2241000816
:1019C00033410008002310B50446C0E90033C0E9E4
:1019D0000433836081814366C28183611946082292
:1019E0005C3000F0B3F80D4B246263620C4BA362D1
:1019F0000C4BE3620C4B23630C4B9C4206D003F16F
:101A00006802944202D0D0339C4205D104F15800C0
:101A1000BDE8104000F0C6B810BD00BFAD320008F0
:101A2000CF320008073300082D330008E8010020FA
:101A3000024A0349034800F06BB800BF04000020CD
:101A40003D2B00081400002041680C4B10B5994252
:101A5000044601D001F072F8A168094B994202D006
:101A6000204601F06BF8E168064B994204D020460D
:101A7000BDE8104001F062B810BD00BFE8010020D1
:101A800050020020B80200200C4B0D4A10B5042172
:101A90001A600C480022FFF795FF0A4B01221C46F2
:101AA000092103F16800FFF78DFF04F1D000022245
:101AB000BDE810401221FFF785BF00BF20030020C2
:101AC000311A0008E8010020014800F06CB800BF9E
:101AD00025030020014800F067B800BF250300205F
:101AE00010B50446FFF7F0FF236A1BB1BDE81040B4
:101AF000FFF7F0BF044B2362044B1B68002BF5D1AA
:101B0000FFF7C2FFF2E700BF491A000820030020D8
:101B10002DE9F8430746884614460026D4E9019586
:101B2000B9F1010905D52468002CF7D13046BDE88C
:101B3000F883AB89012B07D9B5F90E30013303D0F7
:101B400029463846C04706436835E9E7034602445C
:101B5000934200D1704703F8011BF9E770B50026E6
:101B60000C4D0D4B5B1B9C10A64209D1002601F0C9
:101B7000BFFF0A4D0A4B5B1B9C10A64205D170BDEE
:101B800055F8043B98470136EEE755F8043B984773
:101B90000136F2E79C4400089C4400089C4400087D
:101BA000A044000870477047704700000048704725
:101BB00050010020034610B5C9B2024493421846B2
:101BC00001D1002003E0047801338C42F6D110BD2E
:101BD0001FB514461A46094B05461B68D8684CB118
:101BE000074BCDE9013400912B46064901F0A2FBD9
:101BF00001F016FC044B1C46F3E700BF1000002068
:101C000044410008514100087F4100082DE9F74F89
:101C100003690C690746A3427EDB013CA30000F187
:101C2000140501F11408009305EB8403019358F89F
:101C3000243055F8242001339A42B2FBF3F608EB26
:101C400084092ED34FF0000AC446AE46D3465CF852
:101C5000043B98B206FB00A01B0C020C06FB0323FE
:101C6000DEF8002080B292B2121A5A44DEF8000068
:101C70004FEA134A9BB2C3EB224303EB104392B2E9
:101C800042EA0342E1454FEA234B4EF8042BDED2F1
:101C9000009BEB582BB9019B043B9D421A462FD366
:101CA0003C61384601F0F6F9002825DB2946002082
:101CB00058F8042BD1F800C01FFA82FE1FFA8CF3EB
:101CC000A3EB0E030344120CC2EB234202EB1C42B3
:101CD0009BB243EA0243C1454FEA224041F8043B2C
:101CE000E6D255F8242005EB840322B9043B9D423B
:101CF0001A460BD33C610136304603B0BDE8F08F85
:101D00001268043B002ACBD1013CC6E71268043BB1
:101D1000002AEFD1013CEAE70020EEE700000000D6
:101D20002DE9F04F16461F46C26999B08146CDE9AC
:101D30000E67259C82B9102000F0D8FD0246C9F834
:101D40001C0020B9EF21A84BA848FFF741FF002352
:101D5000C0E901330360C360116859B101235268BF
:101D6000484693404A608B6000F05AFF0022D9F841
:101D70001C301A60B7F10008B5BF012300232360AF
:101D800023609B4BBCBF28F00048CDF83C8033EA71
:101D900008031AD142F20F73249AC8F3130858EAC1
:101DA0000608136000F07485269B53B9914B21E01F
:101DB000914B03930833269A1360039819B0BDE83A
:101DC000F08F8C4B03930333F5E7DDE90E34CDE957
:101DD0000A34DDE90A0100220023FEF7C5FD824630
:101DE00050B10123249A1360269B13B1834B269A8A
:101DF0001360834B0393E0E716AB019317AB00939B
:101E00004846DDE90A2301F0F9F95FEA1854169D06
:101E100004907BD0DDE90A010B9BA4F2FF34C3F3ED
:101E2000130343F07F5343F44013CDF850A01946F9
:101E30000022744BFEF778F965A3D3E90023FEF77F
:101E40002BFB65A3D3E90023FEF770F90646204675
:101E50000F46FEF7B7FA62A3D3E90023FEF71CFB97
:101E600002460B4630463946FEF760F906460F46F5
:101E7000FEF7C2FD00228046002330463946FEF7B9
:101E80007DFD48B14046FEF79DFA32463B46FEF7DF
:101E90006BFD08B908F1FF38B8F1160F53D8DDE92A
:101EA0000A01594B03EBC803D3E90023FEF766FD93
:101EB00000284AD0002308F1FF3811932D1B6B1E18
:101EC000099349BF00230027C5F101070993B8F121
:101ED000000F3CDB099BCDF840804344099300236D
:101EE0000C93229B092B66D8052BC4BF043B22937D
:101EF000229BC8BF0024A3F10203D8BF0124032BF7
:101F000000F28680DFE803F05355362B179C2C44F3
:101F100004F23243202BC1BFC3F1400308FA03F897
:101F200004F2124326FA03F3D6BFC3F1200348EAB2
:101F3000030006FA03F0FEF735FA0122A1F1F87367
:101F4000013C149273E70123B7E71190B6E7C8F19B
:101F500000030C930023A7EB08071093C1E70123AC
:101F60000D93239B434408930133012B0593B8BF82
:101F7000012306E001230D93239B002B4BDD0893E7
:101F8000059300210422D9F81C0002F114059D429A
:101F900001F1010644D94160484600F003FE039078
:101FA000002840D1024640F2AF11184BCCE6002386
:101FB000E1E70023D4E7012400230D9422934FF09E
:101FC000FF3300220893059312232392D9E700BF21
:101FD00061436F63A787D23FB3C8608B288AC63F2F
:101FE000FB799F501344D33F8D410008A441000862
:101FF0000000F07F8941000880410008214100086D
:10200000204100080000F83FC842000805420008CF
:1020100001230D93D3E701231A4608930593D4E7D0
:1020200031465200B1E7D9F81C30039A1A60059B7B
:102030000E2B00F2A180002C00F09E80B8F1000F62
:1020400036DD9F4B08F00F0203EBC20318F4807FCC
:102050004FEA2815D3E900AB16D0DDE90A01994B08
:102060000324D3E90823FEF741FBCDE9060105F07F
:102070000F05944E75B9DDE9060152465B46FEF741
:1020800035FB82468B462DE0DDE90A34CDE9063486
:102090000224EEE7E90708D5D6E900235046594661
:1020A000FEF7FAF982468B4601346D100836E1E7F7
:1020B00000F0AD80DDE90A01C8F10005804B05F0B4
:1020C0000F0203EBC203D3E90023FEF7E5F9022474
:1020D00082468B4600237B4E2D11002D40F08C80D4
:1020E000002BCED1119B002B00F095800022504692
:1020F0005946754BFEF742FC002800F08C80059B8A
:10210000002B00F08880089B002B35DD08F1FF33A1
:1021100050465946069300226C4BFEF7BDF98246A5
:102120008B46089E01342046FEF74CF952465B462A
:10213000FEF7B2F90022664BFDF7F8FF0446A1F165
:102140005075CDE91245002E69D1002250465946FE
:10215000604BFDF7E9FF22462B4682468B46FEF791
:102160002BFC002840F0998222465046594605F142
:102170000043FEF703FC20BB179B002BC0F26581D8
:10218000B8F10E0F00F361814D4B03EBC803D3E9A7
:1021900000AB239B002B80F2EF80059B002B00F30C
:1021A000EB800ED100224B4B50465946FEF774F996
:1021B00002460B46DDE90A01FEF7EAFB002800F0C3
:1021C0006F8200252C46239B039EDB430693274604
:1021D00000242946484600F023FD002F00F0C2806D
:1021E0002CB1BC4203D02146484600F019FD3946C7
:1021F000484600F015FDB5E0EA0705D5D6E900230D
:10220000FEF74AF9012301346D10083665E7022410
:10221000DDE90AAB66E7059ECDF8188083E7284B19
:1022200003EBC60353E902010D9B002B56D0024677
:102230000B4600202849FEF759FADDE91223FDF785
:1022400073FF039BCDE912019D191E465946504666
:10225000FEF7D2FB0446FEF7B5F802460B465046A1
:102260005946FDF761FFDDE91223303406F8014BD2
:1022700082468B46FEF782FB002873D152465B46AE
:1022800000201149FDF750FFDDE91223FEF776FB30
:10229000002840F0BB80AE423FF46EAFDDE9120192
:1022A00000220A4BFEF7F8F80022CDE91201074B95
:1022B00050465946FEF7F0F882468B46C6E700BF07
:1022C000C8420008A04200080000F03F000024407F
:1022D00000001C40000014400000E03FDDE9122334
:1022E000FEF7DAF8039BCDE912013344039D159301
:1022F00059465046FEF780FB0446FEF763F80B464E
:10230000024659465046FDF70FFF3034159B05F83D
:10231000014B9D4282468B4627D1DDE91201039B8A
:1023200000221E44B54BFDF701FF02460B46504606
:102330005946FEF741FB002868D1DDE91223002051
:10234000AE49FDF7F1FE02460B4650465946FEF7F0
:1023500015FB00283FF410AF334616F8012D302A44
:10236000FAD01E46DDF818803EE00022A44BFEF7AE
:1023700093F882468B46BBE70024039EA04D52464D
:10238000DDE90A015B46FEF7B1F9FEF735FB0746CA
:10239000FEF718F852465B46FEF77EF802460B46FB
:1023A000DDE90A01FDF7C0FE07F1300C06F801CBAC
:1023B000DDF80CC0DDF814E0A6EB0C0CE645024697
:1023C0000B4633D1FDF7B2FE52465B4604460D463E
:1023D000FEF7F2FAC0B952465B4620462946FEF7A0
:1023E000C3FA08B1FB070FD44846049900F018FC63
:1023F0000023249A337008F101031360269B002BFD
:102400003FF4DBAC1E60D8E4CDF8188033461E469E
:1024100013F8012D392A06D1039A9A42F7D1069A68
:1024200001320692302201321A709BE722462B4677
:10243000FEF732F802460B46CDE90A2300220023BC
:10244000FEF792FA00289AD0CEE70D9A002A00F003
:10245000E380229A012A00F3C280149A002A00F035
:10246000BA8003F233430C9D3E46099A01211A4477
:1024700048461F44099200F087FC044656B1099B68
:10248000002B07DDB342A8BF3346099AFF1AF61A9C
:10249000D31A09930C9B0BB30D9B002B00F0C38048
:1024A000002D00F0BD8021462A46484600F02AFD56
:1024B000049A01460446484600F07CFC0499824692
:1024C000484600F0ADFB0C9B5B1B0C9300F0AE800C
:1024D00051460C9A484600F015FD049001214846EB
:1024E00000F052FC109B0546002B00F0D8811A46E4
:1024F0000146484600F006FD229B0546012B00F3ED
:102500009D800E9B002B40F094800F9BC3F3130320
:10251000002B40F08E800F9B23F000431B0D1B050A
:10252000002B00F089804FF0010A099B013701332D
:102530000993109B002B00F0B8812B6905EB8303F6
:10254000186900F0D5FBC0F12000099B184410F079
:102550001F007ED0C0F12003042B72DD099BC0F167
:102560001C000344074406440993002F05DD3A4646
:102570004846049900F022FD0490099B002B05DDDC
:1025800029461A46484600F019FD0546119B002BC6
:1025900061D02946049800F07DFD00285BDA08F13F
:1025A000FF3306930A2200234846049900F05AFBA1
:1025B0000D9B0490002B00F07A81002321460A2213
:1025C000484600F04FFB089B0446002B72DC229B20
:1025D000022B49DC6EE0169BC3F1360343E7059BF3
:1025E0005D1E0C9BAB420DDB5D1B059B002BBFF6FC
:1025F0003BAF059BFE1A002337E700BF0000E03F1A
:10260000000024400C9B109AEB1A1A440C953E468D
:102610000025059B109228E73E460C9D0D9C2DE75A
:10262000DDF810A054E70C9A049953E7CDF810A0F8
:1026300054E74FF0000A7CE79A467AE74FF0000A29
:102640007BE792D0099A1C331A441F441E44099216
:102650008BE70346F6E7059BCDF81880002B23DCBB
:102660000893229B022B21DD089B002B7FF4ABAD4E
:1026700029460522484600F0F5FA01460546049829
:1026800000F008FD00287FF79EAD3123039E06F879
:10269000013B069B0133069399E535462C46F4E74A
:1026A000059DCDF81880F9E7059B08930D9B002B3D
:1026B00000F00181002E05DD21463246484600F03B
:1026C0007DFC0446BAF1000F5AD04846616800F01C
:1026D00069FA064628B9024640F2EF21814BFFF71E
:1026E00033BB226904F10C01023292000C3000F07D
:1026F00089FE01223146484600F060FC0746039BF4
:10270000039A03F1010B089B13440A930E9B03F0F9
:10271000010309930BF1FF33294604980593FFF752
:1027200075FA2146089000F1300A049800F0B2FCD6
:102730003A4680462946484600F0C8FCC26806462C
:1027400002BB0146049800F0A5FC0246314648460B
:102750000C9200F065FA229B0C9A5E4642EA030155
:10276000099B194310D1BAF1390F2BD0B8F1000FE2
:1027700002DD089B03F1310A059B83F800A028E5E0
:102780002746BCE70122E1E7B8F1000F06DB229BF8
:1027900048EA0308099B58EA030820D1002AEBDD28
:1027A00001220499484600F009FC2946049000F0F3
:1027B00071FC002803DCDFD11AF0010FDCD0BAF184
:1027C000390FD6D13923059A137033461E4616F8B1
:1027D000012C013B392A53D001321A70F9E4002A46
:1027E00007DDBAF1390FEDD0059A0AF10103137034
:1027F000EFE40A9B0BF801AC5B452BD000230A22C7
:102800000499484600F02EFABC4204904FF00003B1
:102810004FF00A022146484606D100F023FA04464A
:1028200007460BF1010B75E700F01CFA3946044628
:1028300000230A22484600F015FA0746F1E7089BF4
:102840002746002B03F1FF36D8BF00260024039B48
:102850005A1C164401220499484600F0AFFB294651
:10286000049000F017FC0028AFDC02D11AF0010F31
:10287000ABD133461E4613F8012D302AFAD0A8E416
:10288000039A9A42A2D1069B013306933123AEE705
:10289000269B002B7FF48CAA134BFFF7ABBA229B2D
:1028A000012B7FF72EAEDDF840A001204DE6089BFE
:1028B000002B7FF7D6AE039E29460498FFF7A6F9B2
:1028C000039B00F1300A06F801ABF21A089B934211
:1028D000B5DD00230A224846049900F0C3F90490AC
:1028E000EAE700BF0542000880410008024B0146AC
:1028F000186800F025B800BF1000002070B50F4E1A
:102900000C463168054611B900F04AFD3060214699
:10291000284600F045FD431C03D14FF0FF3420460C
:1029200070BDC41C24F00304A042F8D0211A28462C
:1029300000F036FD0130F2D1EFE700BF28030020A0
:102940002DE9F843CD1C25F0030508350C2D38BFC3
:102950000C25002D064601DBA94204D90C23336067
:102960000020BDE8F883DFF8D48000F00FF9D8F834
:1029700000301C4644BB29463046FFF7BFFF431CCE
:10298000044658D1D8F800402746002F43D1002CE8
:102990004BD023683946304604EB030900F000FDB4
:1029A000814542D1216830466D1A2946FFF7A6FFBE
:1029B00001303AD023682B442360D8F800305A689D
:1029C00062BBC8F800700FE02268521B20D40B2AAB
:1029D00017D96119A342256018BF5960636808BF01
:1029E000C8F8001062514B60304600F0D5F804F191
:1029F0000B00231D20F00700C21A1CBF1B1AA35096
:102A0000AFE76268A3420CBFC8F800205A60EBE74A
:102A100023466468AEE73C467F68B6E71A465B68C3
:102A2000A342FBD100235360DEE70C233046336022
:102A300000F0B2F894E70560D6E700BF2C03002051
:102A4000B1F90C20F8B5160705460C4651D44B6871
:102A5000002B02DC0B6C002B49DDE66A002E46D011
:102A6000002312F480522F682B6031D0626DA3894D
:102A7000590705D56368D21A636B0BB1236CD21A60
:102A800000232846E66A216AB047421CB4F90C309C
:102A900006D129681D2945D8274ACA40D60741D5FD
:102AA000002262602269D904226004D5421C01D14F
:102AB0002B6803B96065616B2F60C1B104F14403F9
:102AC000994202D0284600F0C7FC002363630EE061
:102AD00001232846216AB0470246501CC7D12B6803
:102AE000002BC4D01D2B01D0162B19D12F60002034
:102AF0001DE00F69002FFAD0930718BF00230E685E
:102B000008BF4B69F61B0F608B60002EEFDD33466C
:102B10003A462846216AD4F828C0E047002807DC56
:102B2000B4F90C304FF0FF3043F04003A381F8BDFF
:102B30000744361AE9E700BF0100402038B50B69A9
:102B400005460C4613B90025284638BD18B1036A5E
:102B50000BB9FEF7C5FFB4F90C30002BF3D0626E51
:102B6000D00704D4990502D4A06DFFF71CF82846BD
:102B70002146FFF765FF636E0546DA07E4D4A389B3
:102B80009B05E1D4A06DFFF70FF8DDE70148FFF7E3
:102B90000AB800BF240300200148FFF705B800BFB2
:102BA0002403002070B5C46905460E4684B9102080
:102BB000FFF79CFE0446E86128B902466B21164BDC
:102BC0001648FFF705F80023C0E901330360C3602E
:102BD000E36853B921220421284600F028FCEB6960
:102BE000E060DB680BB9002070BD53F8260030B1FF
:102BF000026843F826200023C0E90333F4E70121EB
:102C000001FA06F4621D2846920000F010FC00282C
:102C1000E9D0C0E90164EEE78D41000816420008E2
:102C200070B5C66905460C4676B91020FFF75EFE02
:102C30000246E86120B98F21084B0948FEF7C8FF1A
:102C4000C0E901660660C6603CB1EB696268DB689A
:102C500053F82210216043F8224070BD8D410008D6
:102C6000164200082DE9F04107460C461E4600209A
:102C70000D6901F1140CDCF80030013099B202FB4F
:102C800001611E0C0B0C02FB063389B201EB034100
:102C900085424FEA13464CF8041BECDC0EB3A368E4
:102CA000AB4219DC616838460131FFF77BFF804693
:102CB00028B90246BA210C4B0C48FEF789FF22695D
:102CC00004F10C01023292000C3000F09BFB214613
:102CD0003846FFF7A5FF444604EB850301355E61E6
:102CE00025612046BDE8F081054200081642000833
:102CF0000346B0F5803F3ABF030410200020B3F133
:102D0000807F3CBF1B020830B3F1805F3CBF1B01DA
:102D10000430B3F1804F3CBF9B000230002B05DB39
:102D200013F0804F00F1010008BF202070470368B6
:102D3000024613F007000BD0D90721D4980749BFEA
:102D40005B089B08012013605CBF02201360704782
:102D500099B209B910201B0CD9B209B908301B0A65
:102D6000190704BF1B090430990704BF9B080230F0
:102D7000D90703D45B0800F1010003D0136070474A
:102D8000002070472020704710B50C460121FFF746
:102D900009FF024628B940F24511044B0448FEF7EA
:102DA00017FF01234461036110BD00BF0542000805
:102DB000164200082DE9F04FD1F81090D2F810A07B
:102DC0008846D145144685B004DB53460C46CA46B6
:102DD00090469946A36861680AEB0906B342B8BFFA
:102DE0000131FFF7DFFE30B902464FF4B171434BBA
:102DF0004348FEF7EDFE00F114052B46002205EBDB
:102E00008607BB421FD304F1140C08F114010CEB2C
:102E10008A0301EB890202921A1B153A22F003027F
:102E200015349C4288BF00220192029A03918A4283
:102E30000CD8002E03DD57F8043D002B5CD0066152
:102E400005B0BDE8F08F43F8042BDAE7B1F800A035
:102E5000BAF1000F23D0E046A9464FF0000E58F813
:102E6000042BD9F800401FFA82FBA4B20AFB0B44E2
:102E70007444D9F800E0120C4FEA1E4E0AFB02E23D
:102E800002EB1442A4B244EA024443454FEA124E14
:102E900049F8044BE3D8019AAA18C2F804E0039A4F
:102EA0000431B2F80280B8F1000F23D02A68E64658
:102EB0009146AA464FF0000BBEF8004092B208FBC4
:102EC00004B404EB194442EA04424AF8042B5EF8C5
:102ED000042BDAF800904FEA124B1FFA89F208FB34
:102EE0000B22734502EB14424FEA124BE4D8019CCB
:102EF0002C196260043598E7013E9AE70542000804
:102F0000164200082DE9F843174612F003028046E6
:102F10000D4607D0264C013A002354F82220FFF733
:102F2000A1FE0546BF103FD0D8F81C4094B9102030
:102F3000FFF7DCFC0446C8F81C0030B9024640F23A
:102F4000B3111C4B1C48FEF743FE0023C0E90133BC
:102F50000360C360A66846B940F271214046FFF79E
:102F600013FF00230646A06003602C464FF00009C3
:102F700007F001037F1053B1294632464046FFF760
:102F800019FF214605464046FFF74AFE67B1306803
:102F900038B9324631464046FFF70CFF3060C0F882
:102FA000009006462C46E3E72846BDE8F88300BFBC
:102FB000944200088D410008164200082DE9F84FA0
:102FC0000C46074615462369496803EB6218A36857
:102FD0004FEA621A08F101094B450BDB3846FFF74F
:102FE000E1FD064648B902464FF4EF71274B2848E9
:102FF000FEF7EEFD01315B00EEE70023194600F11C
:10300000140C00F11002534534DB22692AEAEA7AF3
:103010000CEB8A0C04F1140315F01F0E614603EB50
:1030200082022BD00025CEF1200A8B46186804318D
:1030300000FA0EF02843CBF8000053F8045B9A42E4
:1030400025FA0AF5F1D8131B153B23F0030304F10D
:1030500015018A4238BF00239C44CCF8045005B9BE
:10306000C14638462146C6F81090FFF7D9FD3046D4
:10307000BDE8F88F42F8041F0133C4E753F8045B3E
:1030800004319A4241F8045CF8D8E9E705420008A7
:103090001642000803460A69006930B5801A0ED14D
:1030A0001433143103EB820401EB820154F8045D04
:1030B00051F8042D954203D005D24FF0FF3030BDBA
:1030C000A342F3D3FBE70120F9E700002DE9F74F16
:1030D0008A460646114650461446FFF7DBFF051E9A
:1030E00012D129463046FFF75DFD024628B940F26D
:1030F0003721404B4048FEF76BFD0123C0E9043502
:10310000104603B0BDE8F08FBCBF5346A246304620
:10311000DAF80410BABF1C4601250025FFF742FD6E
:10312000024618B940F24521324BE3E7C56000F191
:103130001405AB464FF0000CDAF8107026690AF15E
:10314000140904F1140E0AF1100309EB87080EEBC1
:1031500086060193019B5EF8040B53F804AF81B21D
:1031600001931FFA8AF35B1A000C6344C0EB1A4008
:1031700000EB23409BB243EA004376454FEA204CE4
:103180004BF8043BE6D8331B153B153423F00303FF
:10319000A64238BF0023E8184B441C1D26460430C5
:1031A000A5EB0905464506EB050E0ED308F1030114
:1031B000091B21F003010133984538BF0021014468
:1031C00051F8043DA3B117619AE7E24656F8041B93
:1031D0001FFA81FCD4444FEA1149514409EB2C49B0
:1031E00089B241EA09414FEA294CCEF80010D9E7EB
:1031F000013FE5E705420008164200082DE9734348
:10320000012190469946089EFFF7CCFC044630B950
:10321000024640F20F31234B2348FEF7D9FCC9F395
:103220000A55C9F313030DB143F480130193B8F1A8
:10323000000324D068460093FFF779FD0099E0B1C0
:10324000019AC0F1200302FA03F30B43C240636109
:103250000192019B002B0CBF01220222A36122617B
:10326000ADB1A5F2334505443560C0F13500099B89
:103270001860204602B0BDE870836161E9E701A8EB
:10328000FFF755FD019B012263612030E7E7A0F2C3
:10329000324004EB820330601869FFF729FDC0EB70
:1032A0004210E4E7054200081642000810B50C463B
:1032B000B1F90E1000F062F80028ABBF636DA3896E
:1032C0001B1823F48053ACBF6365A38110BD2DE9A7
:1032D000F0411F468B890546DB050C46164605D591
:1032E00002230022B1F90E1000F036F8A38932460D
:1032F00023F48053A38128463B46B4F90E10BDE861
:10330000F04100F05DB810B50C46B1F90E1000F0B8
:1033100023F8B4F90C30421C0BBF23F4805343F460
:103320008053A381A38118BF606510BDB1F90E1051
:1033300000F058B80EB403B5014603AB054853F886
:10334000042B0068019300F0F7F802B05DF804EB7D
:1033500003B070471000002038B5044608461146F7
:103360000022054D2A601A4600F09AFB431C02D148
:103370002B6803B1236038BD3003002038B5044604
:10338000084611460022054D2A601A4600F090FBBF
:10339000431C02D12B6803B1236038BD30030020E9
:1033A00038B50023054D044608462B6000F088FB25
:1033B000431C02D12B6803B1236038BD30030020C9
:1033C00038B50446084611460022054D2A601A46C3
:1033D00000F084FB431C02D12B6803B1236038BD8D
:1033E0003003002038B50023054D044608462B6005
:1033F00000F02EFB431C02D12B6803B1236038BDC3
:10340000300300200A44914200F1FF3300D170479D
:1034100010B511F8014B914203F8014FF9D110BDDD
:10342000062008B500F0D6FA012000F05FFB70B569
:10343000A1FB025434B92946FFF782FA064628B99F
:10344000304670BD0C2200260260F9E72A4621466C
:10345000FEF77CFBF4E7000038B50546002940D0B4
:1034600051F8043C0C1F002BB8BFE418FFF78EFB8B
:103470001C4A136833B9636014602846BDE83840BD
:10348000FFF78ABBA34208D9206821188B4201BFED
:1034900019685B6809182160EDE71A465B680BB193
:1034A000A342FAD911685018A0420BD120680144F8
:1034B000501883421160E0D118685B6808441060BE
:1034C0005360DAE702D90C232B60D6E72068211875
:1034D0008B4201BF19685B68091821606360546002
:1034E000CBE738BD2C030020936810B4013B002BC0
:1034F000936007DA9469A34201DB0A2902D110BC68
:1035000000F044B91368581C10601970084610BCCC
:103510007047F8B506460F461446D518AC4201D19F
:10352000002007E03A46304614F8011BFFF7DCFFA5
:10353000431CF3D1F8BD00002DE9F04F0D461446B1
:10354000984606469DB018B1036A0BB9FEF7C8FA53
:103550006B6ED90705D4AB899A0502D4A86DFEF726
:1035600022FBAB891B0701D52B699BB92946304645
:1035700000F04AF970B16B6EDC0704D54FF0FF30F4
:103580001DB0BDE8F08FAB899805F7D4A86DFEF7A4
:103590000BFBF3E70023099320238DF82930302318
:1035A0004FF00109CDF80C80DFF8A8818DF82A30A2
:1035B00023469A4613F8012B0AB1252AF9D1BAEB12
:1035C000040B0BD05B46224629463046FFF7A1FF8D
:1035D000013000F0A780099A5A4409929AF8003005
:1035E000002B00F09F8000234FF0FF32CDE9052330
:1035F0000AF1010A049307938DF853301A93544645
:10360000052214F8011B5348FEF7D4FA049AD8B9DE
:10361000D10644BF20238DF85330130744BF2B231A
:103620008DF853309AF800302A2B15D054460020DC
:103630004FF00A0C079A214611F8013B303B092B49
:103640004BD9B0B1079214E0A0EB080309FA03F3D9
:103650001343A2460493D2E7039B191D1B680391F1
:10366000002BBBBF5B4242F0020207930793B8BF37
:10367000049223782E2B0AD163782A2B32D1039B14
:1036800002341A1D1B68039243EAE3730593DFF8C3
:10369000C8A0032250462178FEF78CFA38B14022A8
:1036A000049BA0EB0A00824013430134049314F8F6
:1036B000011B062229488DF82810FEF77BFA002806
:1036C0003FD0274B1BBB039B073323F00703083373
:1036D0000393099B3B4409936AE70C4601200CFBCA
:1036E0000232A8E700234FF00A0C19460134059373
:1036F000204610F8012B303A092A03D9002BC6D0F6
:103700000591C4E7044601230CFB0121F0E703AB5C
:1037100000932A463046134B04A9FDF795FD074652
:10372000781CD6D16B6ED90705D4AB899A0502D423
:10373000A86DFEF739FAAB895B063FF51FAF099814
:103740001EE703AB00932A463046064B04A9FEF75A
:1037500019F8E4E782420008884200088C42000819
:10376000491200081335000882B001B901A942B11D
:103770004BB113780B601278101E18BF012002B0F5
:1037800070471046FBE76FF00100F8E7F8B50E460A
:103790001446054618B1036A0BB9FEF7A1F9A369EF
:1037A000A360A3891A0701D5236943B92146284696
:1037B00000F02AF818B14FF0FF373846F8BD2368FB
:1037C0002269F6B2981A63693746834205DC2146BE
:1037D0002846FFF7B3F90028EDD1A368013BA360A9
:1037E00023685A1C22601E706269431C9A4204D0EE
:1037F000A389DB07E1D50A2EDFD121462846FFF752
:103800009DF90028D9D0D6E738B5284B0546186869
:103810000C4618B1036A0BB9FEF762F9B4F90C3023
:103820001A0721D4D80607D409222A6043F040039E
:103830004FF0FF30A38130E0590712D5616B41B1E1
:1038400004F14403994202D02846FFF705FE002305
:1038500063630022B4F90C306260226923F0240310
:10386000226043F00803A38122693AB99A0501D581
:10387000180603D52146284600F04BF8B4F90C3061
:1038800013F001020AD00022A26062695242A261D2
:10389000226942B913F08000C8D138BD990758BFDA
:1038A0006269A260F4E70020F7E700BF1000002083
:1038B0000346084641B1FF2A04D98A224FF0FF305F
:1038C0001A60704701200A70704770B50C46B1F954
:1038D0000E10154600291E4696B00ADAA18911F08D
:1038E000800113D14FF48062002031602A6016B04D
:1038F00070BD6A4600F09AF80028EFDB019901F4E8
:103900007041A1F5005359425941EBE70021402293
:10391000EAE78B8973B59E0705460C4607D504F187
:103920004703236023610123636102B070BD01ABD3
:103930006A46FFF7CAFF009E28463146FFF700F8A7
:10394000B4F90C3038B99A05EFD423F0030343F0EF
:103950000203A381E3E743F08003A381019BC4E951
:1039600004062060002BE0D02846B4F90E1000F0C9
:1039700039F80028D9D0A38923F0030343F00103C9
:10398000A381D2E71F2938B505460C4604D9162372
:1039900003604FF0FF3038BDC26B12B152F82130D6
:1039A0004BB9284600F040F8224601462846BDE8BB
:1039B000384000F027B8012B0AD0591C03D1162338
:1039C00003600120E7E70021204642F824109847D1
:1039D0000020E0E7024B01461868FFF7D3BF00BFA5
:1039E0001000002038B50023054D044608462B6022
:1039F00000F046F8431C02D12B6803B1236038BDA8
:103A00003003002038B50023064D04460846114611
:103A10002B6000F03DF8431C02D12B6803B12360FA
:103A200038BD00BF3003002000F022B838B50023B5
:103A3000064D0446084611462B6000F011F8431C61
:103A400002D12B6803B1236038BD00BF30030020D2
:103A50005822024B4FF0FF301A60704730030020AD
:103A60005822024B4FF0FF301A607047300300209D
:103A70005822024B4FF0FF301A607047300300208D
:103A80005822024B00201A60704700BF300300200C
:103A90005822024B4FF0FF301A607047300300206D
:103AA0005822024B4FF0FF301A607047300300205D
:103AB0005822024B4FF0FF301A607047300300204D
:103AC000044A05491368002B08BF0B4618441060D0
:103AD0001846704734030020380300205822024B58
:103AE0004FF0FF301A60704730030020FEE700BF40
:103AF000F8B500BFF8BC08BC9E467047F8B500BFDB
:083B0000F8BC08BC9E467047AA
:103B080000000000000000000000000000000000AD
:103B1800000000F800000000000000333000000042
:103B280000100C06100C0600000000000000000049
:103B380040C07840C0784000043F04043F040400BB
:103B4800007088FC08300000001820FF211E0000CB
:103B5800F008F000E018000000211C031E211E00E0
:103B680000F00888700000001E2123241927211066
:103B780010160E0000000000000000000000000009
:103B8800000000E0180402000000000718204000B0
:103B980000020418E00000000040201807000000A0
:103BA800404080F0804040000202010F0102020004
:103BB800000000F0000000000101011F01010100E8
:103BC800000000000000000080B07000000000004D
:103BD80000000000000000000001010101010101D6
:103BE800000000000000000000303000000000006D
:103BF8000000000080601804006018060100000042
:103C080000E010080810E000000F102020100F003E
:103C1800001010F8000000000020203F20200000C5
:103C2800007008080888700000302824222130001D
:103C380000300888884830000018202020110E0025
:103C48000000C02010F8000000070424243F2400CE
:103C580000F80888880808000019212020110E00A3
:103C680000E0108888180000000F112020110E00B5
:103C780000380808C83808000000003F00000000AD
:103C88000070880808887000001C222121221C006E
:103C980000E010080810E0000000312222110F0097
:103CA800000000C0C000000000000030300000002C
:103CB800000000800000000000008060000000009C
:103CC80000008040201008000001020408102000B5
:103CD8004040404040404000040404040404040000
:103CE8000008102040800000002010080402010095
:103CF800007048080808F000000000303601000095
:103D0800C030C828E810E0000718272423140B0047
:103D18000000C038E0000000203C230202273820C1
:103D280008F8888888700000203F202020110E00A5
:103D3800C03008080808380007182020201008009C
:103D480008F808080810E000203F202020100F0085
:103D580008F88888E8081000203F20202320180051
:103D680008F88888E8081000203F200003000000B9
:103D7800C03008080838000007182020221E02005A
:103D880008F808000008F808203F210101213F2019
:103D9800000808F8080800000020203F2020000044
:103DA80000000808F8080800C08080807F00000034
:103DB80008F888C028180800203F2001263820006D
:103DC80008F8080000000000203F202020203000D4
:103DD80008F8F800F8F80800203F003F003F2000EE
:103DE80008F830C00008F808203F200007183F00F6
:103DF800E01008080810E0000F10202020100F0025
:103E080008F808080808F000203F21010101000017
:103E1800E01008080810E0000F18242438504F005C
:103E280008F8888888887000203F2000030C30201C
:103E380000708808080838000038202121221C005A
:103E4800180808F8080818000000203F20000000A3
:103E580008F808000008F808001F202020201F008C
:103E68000878880000C83808000007380E010000EC
:103E7800F80800F80008F800033C0700073C0300B6
:103E8800081868808068180820302C03032C30201C
:103E98000838C800C83808000000203F200000008B
:103EA80010080808C83808002038262120201800E3
:103EB800000000FE020202000000007F40404000B7
:103EC800000C30C000000000000000010638C000EF
:103ED80000020202FE000000004040407F00000097
:103EE80000000402020204000000000000000000BC
:103EF80000000000000000008080808080808080BA
:103F080000020204000000000000000000000000A1
:103F180000008080808000000019242222223F2097
:103F280008F8008080000000003F112020110E00DA
:103F38000000008080800000000E11202020110069
:103F4800000000808088F800000E112020103F201B
:103F58000000808080800000001F2222222213009F
:103F6800008080F0888888180020203F20200000EA
:103F78000000808080808000006B9494949360009F
:103F880008F8008080800000203F210000203F20AA
:103F980000809898000000000020203F20200000AA
:103FA800000000809898000000C08080807F00009A
:103FB80008F8000080808000203F24022D30200077
:103FC800000808F8000000000020203F2020000022
:103FD8008080808080808000203F20003F20003F3C
:103FE8008080008080800000203F210000203F204A
:103FF8000000808080800000001F202020201F00FB
:10400800808000808000000080FFA12020110E0029
:104018000000008080808000000E112020A0FF801A
:10402800808080008080800020203F2120000100C7
:10403800000080808080800000332424242419001C
:10404800008080E0808000000000001F2020000029
:104058008080000000808000001F202020103F206A
:10406800808080000080808000010E3008060100FA
:1040780080800080008080800F300C030C300F009F
:1040880000808000808080000020312E0E312000CA
:10409800808080000080808080818E7018060100FA
:1040A80000808080808080000021302C2221300018
:1040B80000000000807C020200000000003F404039
:1040C80000000000FF00000000000000FF000000EA
:1040D8000002027C800000000040403F0000000019
:1040E80000060101020204040000000000000000B4
:1040F800535953434C4B3A0052756E6E696E6700C4
:104108002020202020202000494E4600696E6600AD
:104118004E414E006E616E0030003031323334351E
:10412800363738394142434445460030313233341A
:104138003536373839616263646566002C206675E8
:104148006E6374696F6E3A20006173736572746987
:104158006F6E2022257322206661696C65643A209F
:1041680066696C6520222573222C206C696E652097
:104178002564257325730A00496E66696E6974792A
:10418800004E614E005245454E54206D616C6C6F77
:104198006320737563636565646564002F566F6C8F
:1041A800756D65732F646174612F6A656E6B696ED6
:1041B800732F776F726B73706163652F474E552D40
:1041C800746F6F6C636861696E2F61726D2D313425
:1041D8002F7372632F6E65776C69622D63796777C9
:1041E800696E2F6E65776C69622F6C6962632F73D5
:1041F80074646C69622F64746F612E630042616C31
:104208006C6F6320737563636565646564002F561E
:104218006F6C756D65732F646174612F6A656E6B61
:10422800696E732F776F726B73706163652F474E7A
:10423800552D746F6F6C636861696E2F61726D2D97
:1042480031342F7372632F6E65776C69622D6379D1
:104258006777696E2F6E65776C69622F6C69626328
:104268002F7374646C69622F6D707265632E6300BE
:104278004300504F534958002E00232D302B200067
:10428800686C4C00656667454647000005000000FD
:10429800190000007D0000000080E03779C3414329
:1042A800176E05B5B5B89346F5F93FE9034F384D94
:1042B800321D30F94877825A3CBF737FDD4F157540
:1042C800000000000000F03F000000000000244053
:1042D80000000000000059400000000000408F402E
:1042E800000000000088C34000000000006AF84099
:1042F8000000000080842E4100000000D0126341BD
:104308000000000084D797410000000065CDCD4132
:10431800000000205FA00242000000E87648374213
:10432800000000A2941A6D42000040E59C30A242B1
:104338000000901EC4BCD64200003426F56B0C4326
:104348000080E03779C3414300A0D88557347643CD
:1043580000C84E676DC1AB43003D9160E458E1432E
:10436800408CB5781DAF154450EFE2D6E41A4B44A3
:1043780092D54D06CFF08044F64AE1C7022DB544E8
:10438800B49DD9794378EA440020202020202020B9
:1043980020202828282828202020202020202020ED
:1043A80020202020202020202088101010101010FD
:1043B8001010101010101010100404040404040449
:1043C80004040410101010101010414141414141E3
:1043D80001010101010101010101010101010101C5
:1043E80001010101101010101010424242424242D5
:1043F8000202020202020202020202020202020295
:10440800020202021010101020000000000000003C
:104418000000000000000000000000000000000094
:104428000000000000000000000000000000000084
:104438000000000000000000000000000000000074
:104448000000000000000000000000000000000064
:104458000000000000000000000000000000000054
:104468000000000000000000000000000000000044
:104478000000000000000000000000000000000034
:0C44880000000000000000000000000028
:084494007CBCFF7F0100000069
:04449C00B10A000859
:0444A000890A00087D
:1044A40000A24A040000000003000000E80100200C
:1044B4001400002000000000E80100205002002049
:1044C400B80200200000000000000000000000000E
:1044D40000000000000000000000000000000000D8
:1044E40000000000000000000000000000000000C8
:1044F40000000000000000000000000000000000B8
:104504004300000000000000000000000000000064
:104514000000000000000000000000000000000097
:104524004300000000000000000000000000000044
:104534000000000000000000000000000000000077
:104544004300000000000000000000000000000024
:104554000000000000000000000000000000000057
:104564004300000000000000000000000000000004
:104574000000000000000000000000000000000037
:1045840043000000000000000000000000000000E4
:104594000000000000000000000000000000000017
:1045A40043000000000000000000000000000000C4
:1045B40000000000000000000000000000000000F7
:1045C40043000000000000000000000000000000A4
:1045D40000000000000000000000000000000000D7
:1045E400B138000869370008000000009043000853
:1045F400804200087F4100087F4100087F41000895
:104604007F4100087F4100087F4100087F41000886
:104614007F4100087F410008FFFFFFFFFFFFFFFF0E
:10462400FFFFFFFFFFFF0000010041534349490022
:104634000000000000000000000000000000000076
:1046440000000000000000000000415343494900FD
:104654000000000000000000000000000000000056
:0C4664000000000000000000000000004A
:0400000508000EFDE4
:00000001FF
